:10009000AF83E582900002F0EFA3F0120298900087
:1000A00002E0FEA3E0FFFDED2DFD4305A08D82C023
:1000B00007C006120318D006D0078E8212031890CC
:1000C0000001E0F5821203180202CDAF83E58290B1
:1000D0000004F0EFA3F0120298900004E0FEA3E009
:1000E000FFFD2DFD4305A08D82C007C006C005128F
:1000F0000318D005D006D0078E82C005120318124F
:1001000002ADD0054305018D82120318120395AF8D
:1001100082C0071203001202CDD0078F8222AF8364
:10012000E582900008F0EFA3F0900008E0FEA3E065
:10013000FF900006E0FCA3E0FD90000AECC39EF0F7
:10014000ED9FA3F090000AE0FEA3E0FF90000AE01C
:10015000F5F0A3E045F0700122900008E0FCA3E078
:10016000FDC007C006C005C004C004C00574F5C0CA
:10017000E0741AC0E07480C0E012101DE58124FB19
:10018000F581D004D005D006D0077A007B00C3EA01
:100190009410EB6480948050598C828D83C007C08A
:1001A00006C005C004C003C0021200CBA8827900BB
:1001B000C000C00174FCC0E0741AC0E07480C0E0EC
:1001C00012101DE58124FBF581D002D003D004D0AC
:1001D00005D006D0070CBC00010D900008ECF0ED36
:1001E000A3F01EBEFF011FEE4F60070ABA009F0B6F
:1001F000809C900008ECF0EDA3F090000AEEF0EF88
:10020000A3F07402C0E0741BC0E07480C0E0121060
:100210001D1581158115810201441202989001F487
:10022000120259D2947E007F00C3EE940AEF6480DC
:100230009480501FC2939001F4C007C00612025967
:10024000D2939001F4120259D006D0070EBE00D905
:090250000F80D61202980202CDC3
:101AF500252E33583A2000252E327820000A0D0075
:10025900AF83E58290000CF0EFA3F090000CE0FE74
:10026900A3E0FF900047740FF0E4A3F08E828F8320
:1002790012079BAE82AF837C007D00C3EC9EED9F8D
:1002890050070CBC00F50D80F222D294D29322D2F1
:1002990093D2949001F4120259C2949001F412027B
:1002A90059C29322C2939000FA120259D294900033
:1002B900FA120259D2939000FA120259C29490008C
:1002C900FA020259C2949000FA120259D29390008C
:1002D900FA120259D2949000FA120259C29322C218
:1002E900939000FA120259C2949000FA120259D25C
:1002F900939001F4020259C2939000FA120259D262
:10030900949000FA120259D2939001F4020259E52D
:100319008290000EF0E0FF7E00C2939000FAC007C1
:10032900C006120259D006D0078F047D008EF00551
:10033900F08006EC2CFCED33FDD5F0F7EC30E7044A
:10034900D2948002C2949000FAC007C006120259E2
:10035900D2939001F4120259D006D0070EBE0800BC
:1003690040B7C293D2949001F4120259D2939001EA
:10037900F41202592094FD9000FA120259C2939086
:1003890001F4120259A294E433F5822290000FE499
:10039900F07F00C2939001F4C007120259D007A25E
:1003A90094E433FE8F057407C39DFD8DF005F0EECF
:1003B900800225E0D5F0FBFD90000FE04DF0D293CF
:1003C9009001F4C007120259D0070FBF080040C3BB
:0703D90090000FE0F5822205
:03000000020034C7
:03008D000200036B
:030003000203E015
:1003E0001206437405C0E0741BC0E07480C0E012C4
:1003F000101D158115811581120293901B1E75F039
:1004000080120F6F901B4375F080120F6F901B6767
:1004100075F080120F6F901B9B75F080120F6F901C
:100420001BB575F080120F6F901BCD75F080120F09
:100430006F90001075F000120722900010E0FFBFCF
:10044000310280030204EB901BEF75F080120F6FF6
:1004500090001575F00012072290004EE4F0A3F012
:10046000A3F09000517410F0E4A3F090001575F023
:1004700000120828AB82AC83C004C003120651AD41
:1004800082AE83D003D004BD0149BE0046901C114A
:1004900075F080C004C003120F6F90003375F00038
:1004A00012072290004EE4F0A3F0A3F090005174E4
:1004B00010F0E4A3F090003375F000120828A98230
:1004C000D003D004900001E9F08B828C831200905D
:1004D0000204287425C0E0741CC0E07480C0E012DF
:1004E000101D158115811581020428BF3202800379
:1004F000020578901C3875F080120F6F900015750A
:10050000F00012072290004EE4F0A3F0A3F0900058
:10051000517410F0E4A3F090001575F00012082853
:10052000AB82AC83C004C003120651AD82AE83D04F
:1005300003D004BD012ABE00278B828C831200CB1E
:10054000AE827D00C006C005745BC0E0741CC0E0D4
:100550007480C0E012101DE58124FBF5810204289F
:100560007425C0E0741CC0E07480C0E012101D153A
:100570008115811581020428BF33028002807C909E
:100580001C6B75F080120F6F90001F75F000120742
:1005900022901C9375F080120F6F90002975F00067
:1005A00012072290004EE4F0A3F0A3F090005174E3
:1005B00010F0E4A3F090001F75F000120828AB8241
:1005C000AC8390004EE4F0A3F0A3F09000517410BF
:1005D000F0E4A3F090002975F000C004C0031208F5
:1005E00028A982AA83D003D004900006E9F0EAA3E8
:1005F000F08B828C8312011E020428BF340F901CE2
:10060000B775F080120F6F12021A020428BF3F273D
:10061000901B1E75F080120F6F901B4375F08012B7
:100620000F6F901B6775F080120F6F901B9B75F01A
:1006300080120F6F020428901CC775F080120F6F94
:0306400002042889
:101B050053455249414C20494E495449414C49534A
:101B15004154494F4E200A0D00456E7465722031BF
:101B250020746F2077726974652064617461206127
:101B350074203C616464726573733E200D00456ECC
:101B4500746572203220746F20726561642064614F
:101B55007461206174203C616464726573733E2016
:101B65000D00456E746572203320666F72206865BE
:101B75007864756D702066726F6D203C6164647267
:101B8500657373313E20746F203C616464726573C4
:101B950073323E200D00456E746572203420746FDB
:101BA50020726573657420454550524F4D200D00D8
:101BB500456E746572203F20666F7220757365727D
:101BC500206D656E75200D003C3C456E7465722078
:101BD500636F6D6D616E6420666F72206F706572E4
:101BE5006174696F6E3E3E0A0D00456E7465722024
:101BF5006164647265737320746F207772697465AC
:101C0500206461746120746F200A0D00456E74654F
:101C15007220646174612076616C7565200A0D001F
:101C2500496E76616C6964206164647265737320C2
:101C35000A0D00456E746572206164647265737384
:101C450020746F207265616420646174612066721E
:101C55006F6D200A0D0052656164206279746520FC
:101C65002558200A0D00456E746572206164647202
:101C75006573733120746F207374617274206865A5
:101C85007864756D702066726F6D200A0D00456E63
:101C950074657220616464726573733220746F2099
:101CA500656E642068657864756D70206174200ABE
:101CB5000D00526573657420656570726F6D200A3D
:101CC5000D00456E74657220636F727265637420D2
:101CD500636F6D6D616E64206F7220656E746572E1
:101CE50020273F2720666F7220746865207573650D
:0A1CF50072206D656E75200D0A0067
:10064300758920758DFD759850D28ED29922AF830E
:10065300E58290003DF0EFA3F090003DE0A3E0C3FE
:10066300948050049000012290000022AF83E58221
:1006730090003FF0EFA3F03099FD3099FDE59830FD
:10068300E1FB90003FE0FEA3E0FF8E99C2998E82CA
:100693008F83223098FDE59830E0FB10980280FBB1
:1006A300AE997F008E828F8322AFF0AE83E5829076
:1006B3000041F0EEA3F0EFA3F0900041E0FDA3E0D2
:1006C300FEA3E0FF7B007C008D828E838FF0121AE5
:1006D30069FA60360DBD00010E900041EDF0EEA306
:1006E300F0EFA3F08A017A0089828A83C007C006EB
:1006F300C005C004C00312066FD003D004D005D0D8
:1007030006D0070BBB00C10C80BE900041EDF0EE9C
:10071300A3F0EFA3F00BBB00010C8B828C8322AF01
:10072300F0AE83E582900044F0EEA3F0EFA3F07EF9
:10073300007F00900044E0FBA3E0FCA3E0FDC007C2
:10074300C006C005C004C003120696A982D003D018
:1007530004D005D006D0078B828C838DF0E9120A72
:1007630055A3AB82AC830EBE00010F900044EBF0A7
:10077300ECA3F0EDA3F0B90DC5900044EBF0ECA3AE
:10078300F0EDA3F08B828C838DF0E4120A550EBE3C
:1007930000010F8E828F8322AF83E582900049F0A0
:1007A300EFA3F090004BE4F0A3F0900047E0FEA32A
:1007B300E0FF7D10900049E0FBA3E0FC90004D2397
:1007C3005401F0EB2BFBEC33FC900049EBF0ECA372
:1007D300F090004BE0FBA3E0FCEB2BFBEC33FC9035
:1007E300004BEBF0ECA3F090004DE0600890004B61
:1007F300E043E001F090004BE0FBA3E0FCC3EB9E81
:10080300EC9F401390004BEBC39EF0EC9FA3F09042
:100813000049E043E001F0DD9B900049E0FEA3E0E6
:100823008E82F58322AFF0AE83E582900053F0EE23
:10083300A3F0EFA3F0900053E0FDA3E0FEA3E0FFDD
:100843008D828E838FF0121A69FCBC20028003BC58
:1008530009070DBD00EA0E80E7900056EDF0EEA308
:10086300F0EFA3F08D828E838FF0121A69FCBC2DFA
:100873001490005C7401F09000562DF0E43EA3F058
:10088300EFA3F0800590005CE4F090005CE06079F9
:10089300900056E0FDA3E0FEA3E0FF8D828E838FE0
:1008A300F0121A69FDBD20028022BD0902801D904D
:1008B3000056E0FDA3E0FEA3E0FF8D828E838FF060
:1008C300121A69FFBF2D028003BF2B3D90004EE03B
:1008D300FDA3E0FEA3E0FF90004EE0F5F0A3E045AA
:1008E300F0601F900053E0FAA3E0FBA3E0FC8D82CD
:1008F3008E838FF0EA120A55A3EB120A55A3EC126A
:100903000A55900000E4F5F022900056E0FDA3E0C4
:10091300FEA3E0FF900051E0FBA3E0FC90006174B4
:1009230059F07400A3F0E4A3F0900064EBF0ECA39F
:10093300F08D828E838FF0120AD5AC82AD83AEF038
:10094300FF900059E0F508A3E0F509A3E0F50A904C
:100953000056E0F8A3E0FAA3E0FBC008C009C00A10
:1009630088828A838BF012000615811581158170A8
:100973004390004EE0F50BA3E0F50CA3E0F50D90DA
:10098300004EE0F5F0A3E045F06022900053E0F85C
:10099300A3E0FAA3E0FB850B82850C83850DF0E8C9
:1009A300120A55A3EA120A55A3EB120A5590000046
:1009B300E4F5F02290004EE0F9A3E0FAA3E0FB9007
:1009C300004EE0F5F0A3E045F0601789828A838B3F
:1009D300F0E508120A55A3E509120A55A3E50A1220
:1009E3000A5590005CE07021C374FF9C74FF9D74F2
:1009F300FF9E747F9F50129000BE7422F0E4A3F018
:100A030090FFFF75F0FF747F2290005CE0601EC3CF
:100A1300E49CE49DE49E74809F50129000BE742277
:100A2300F0E4A3F0900000E4F5F074802290005C01
:100A3300E0600FC3E49CF8E49DF9E49EFAE49FFBB5
:100A430080088C008D018E028F03888289838AF04F
:020A5300EB2294
:06006300E478FFF6D8FD71
:100041007900E94400601B7A00901D1078C075A00A
:1000510000E493F2A308B8000205A0D9F4DAF2751E
:02006100A0FFFE
:100A550020F71130F6138883A88220F509F6A883BC
:100A65007583002280FEF280F5F022E58290005F1A
:100A7500F0E0FFBF3000400EEF24C64009EF24D060
:100A8500900060F0803490005FE0FFBF6100400E91
:100A9500EF2485400990006074A92FF0801C900018
:100AA5005FE0FFBF4100400EEF24A54009900060C4
:100AB50074C92FF080047582FF22900060E0FF90DA
:100AC500005EE0FEC3EF9E40047582FF228F822206
:100AD500AFF0AE83E582900066F0EEA3F0EFA3F0F1
:100AE500900066E0FDA3E0FEA3E0FF900070E4F057
:100AF500900071F08D828E838FF0121A69FCBC20F4
:100B0500028003BC09070DBD00EA0E80E79000696D
:100B1500EDF0EEA3F0EFA3F08D028E038F048D822E
:100B25008E838FF0121A69FFBF2B028009BF2D1427
:100B35009000717401F090006974012AF0E43BA300
:100B4500F0ECA3F0900064E0FEA3E0FF900064E009
:100B5500F5F0A3E045F06003020C2A900069E0FB84
:100B6500A3E0FCA3E0FD90007674FFF0741CA3F0F5
:100B75007480A3F09000797402F0E4A3F08B828C6A
:100B8500838DF0120EB9E5828583F045F0603490CF
:100B95000069E0FBA3E0FCA3E0FD9000767402F0A1
:100BA500741DA3F07480A3F09000797402F0E4A39F
:100BB500F08B828C838DF0120EB9E5828583F0452A
:100BC500F070259000647410F0E4A3F0900069E0E3
:100BD500FBA3E0FCA3E0FD90006974022BF0E43C6C
:100BE500A3F0EDA3F0020CB6900069E0FBA3E0FCD6
:100BF500A3E0FD8B828C838DF0121A69FABA301945
:100C05009000647408F0E4A3F0900069042BF0E40C
:100C15003CA3F0EDA3F0020CB6900064740AF0E476
:100C2500A3F0020CB6BE1005BF00028003020CB68D
:100C3500900069E0FDA3E0FEA3E0FF90007674FF5D
:100C4500F0741CA3F07480A3F09000797402F0E4B2
:100C5500A3F08D828E838FF0120EB9E5828583F025
:100C650045F06034900069E0FDA3E0FEA3E0FF904D
:100C750000767402F0741DA3F07480A3F0900079DF
:100C85007402F0E4A3F08D828E838FF0120EB9E525
:100C9500828583F045F07019900069E0FDA3E0FEC0
:100CA500A3E0FF90006974022DF0E43EA3F0EFA3EA
:100CB500F0900069E0FDA3E0FEA3E0FF8D828E8346
:100CC5008FF0121A69FC900064E0FAA3E0FB900033
:100CD5005EEAF08C82C007C006C005C003C00212E0
:100CE5000A70AC82D002D003D005D006D007EC3014
:100CF500E743900061E0F50EA3E0F50FA3E0F510E2
:100D0500900061E0F5F0A3E045F06022900066E018
:100D1500F8A3E0F9A3E0FC850E82850F838510F02A
:100D2500E8120A55A3E9120A55A3EC120A559000D8
:100D350000E4F5F02290006CE4F0A3F0A3F0A3F03A
:100D45008A0E8B0F8D828E838FF0121A69FA9000AE
:100D55005EE50EF08A82C007C006C005120A70AAB9
:100D650082D005D006D007EA30E703020E3EC00266
:100D750090006CE0F8A3E0F9A3E0FAA3E0FC900092
:100D850072E8F0E9A3F0EAA3F0ECA3F09000BAE56D
:100D95000EF0E50FA3F0E50F3395E0A3F0A3F0887F
:100DA5008289838AF0ECC007C006C005121A85A99E
:100DB50082AA83ABF0FCD005D006D00790006CE981
:100DC500F0EAA3F0EBA3F0ECA3F090006CE0F511D2
:100DD500A3E0F512A3E0F513A3E0F514900072E08B
:100DE500F8A3E0FAA3E0FBA3E0FCC3E51198E51244
:100DF5009AE5139BE5149CD002500690007074018F
:100E0500F090006CE0F511A3E0F512A3E0F513A353
:100E1500E0F5148A017A007B007C0090006CE925DE
:100E250011F0EA3512A3F0EB3513A3F0EC3514A35A
:100E3500F00DBD00010E020D49900061E0FAA3E03E
:100E4500FBA3E0FC900061E0F5F0A3E045F0601441
:100E55008A828B838CF0ED120A55A3EE120A55A3F4
:100E6500EF120A55900070E060119000BE7422F0F8
:100E7500E4A3F090FFFF74FFF5F022900071E060AD
:100E85001D90006CE0FCA3E0FDA3E0FEA3E0FFC322
:100E9500E49CFCE49DFDE49EFEE49FFF800E900033
:100EA5006CE0FCA3E0FDA3E0FEA3E0FF8C828D8354
:040EB5008EF0EF22AA
:061CFF00307800305800AF
:100069007800E84400600A790175A000E4F309D832
:10007900FC78BFE84400600C7901900001E4F0A32A
:04008900D8FCD9FACC
:100EB900AFF0AE83E58290007BF0EEA3F0EFA3F0F4
:100EC900900079E0FEA3E0FF900079E0F5F0A3E05F
:100ED90045F070049000002290007BE0FBA3E0FC49
:100EE900A3E0FD900076E0F8A3E0F9A3E0FA1EBEC6
:100EF900FF011FEE4F60418B828C838DF0121A69BE
:100F0900F5206034C006C007888289838AF0121AE6
:100F190069FFB520028006D007D006801BD007D014
:100F2900060BBB00010C90007BEBF0ECA3F0EDA3EA
:100F3900F008B800B90980B690007BEBF0ECA3F09B
:100F4900EDA3F08B828C838DF0121A69FB7F0088E8
:100F59008289838AF0121A69F87E00EBC398FBEF45
:100F69009E8B82F58322AFF0AE83E58290007EF0FE
:100F7900EEA3F0EFA3F090007EE0FDA3E0FEA3E076
:100F8900FF8D828E838FF0121A69FC60330DBD00CC
:100F9900010E90007EEDF0EEA3F0EFA3F07B008C44
:100FA900828B83C007C006C00512066FAB82AC8373
:100FB900D005D006D007BBFFC8BCFFC590FFFF22F4
:100FC90090000A02066FC01F85811F7E008E831262
:100FD900066FD01F22AFF0AE83E582900082F0EE5B
:100FE900A3F0EFA3F0900082E0FDA3E0FEA3E0FFF1
:100FF900900081E0FC900096E4F0A3F0A3F090004B
:1010090099EDF0EEA3F0EFA3F090009CECF0900FB7
:10101900CF021123C01FE581F51F24FBFF90009625
:10102900E4F0A3F0A3F0E51F24FBF8900099E6F0A3
:1010390008E6A3F008E6A3F090009CEFF0900FCF2C
:10104900121123D01F22E582900092F0E0FF900058
:1010590088E0C0E0A3E0C0E0A3E0C0E012106A802D
:101069000D900086E0C0E0A3E0C0E08F82221581E8
:1010790015811581900090E02401F0A3E03400F07F
:1010890022E582900093F0E02430FF24C6500D74CD
:10109900072FFF900085E060034307208F8202102D
:1010A9004FE582900094F0E0FFC4540FF582C00729
:1010B90012108AD00753070F8F8202108AE5829097
:1010C9000095F090008BE0FCA3E0FDA3E0FEA3E017
:1010D900FF90008FE0FB900095E0FA79208B00E803
:1010E90028F520EF2354014520FBEC2CFCED33FDC2
:1010F900EE33FEEF33FFC3EB9A4007EBC39AFB4392
:10110900040119E970D790008BECF0EDA3F0EEA380
:10111900F0EFA3F090008FEBF022AF83E58290000F
:101129009DF0EFA3F090009DE0FEA3E0FF90008604
:10113900EEF0EFA3F0900096E0FDA3E0FEA3E0FF40
:10114900900088EDF0EEA3F0EFA3F0900090E4F0AA
:10115900A3F0900099E0FDA3E0FEA3E0FF8D828E4D
:10116900838FF0121A69FC90009974012DF0E43E06
:10117900A3F0EFA3F0EC7003021A25BC250280034B
:10118900021A1D90009FE4F09000A0F09000A1F0D9
:101199009000A2F09000A3F09000A4F09000A5F0B8
:1011A9009000A6F09000A8F09000A9F0A3F090009C
:1011B900AB14F0A3F0900099E0FDA3E0FEA3E0FFDB
:1011C9008D828E838FF0121A69FBA3AD82AE839054
:1011D9000099EDF0EEA3F0EFA3F09000AFEBF0BBB8
:1011E90025088B8212104F02115BBB30005003029D
:1011F90012BCEB24C650030212BC9000ABE0F515FB
:10120900A3E0F51674FFB51563B51660C005C006F1
:10121900C0079000A9E0FAA3E0FF9000B8EAF0EF58
:10122900A3F090000AC005C003121A49AE82AF8329
:10123900D003D0058B027D00EA2EFEED3FFFEE24A0
:10124900D0FEEF34FFFF9000A9EEF0EFA3F0D00736
:10125900D006D0059000A9E0F5F0A3E045F06003C1
:101269000211C99000A07401F00211C9C005C0069D
:10127900C0079000B8E515F0E516A3F090000AC084
:1012890006C005C003121A49AA82AF83D003D0054C
:10129900D0067E00EB2AFAEE3FFFEA24D0FAEF34BB
:1012A900FFFF9000ABEAF0EFA3F0D007D006D0051E
:1012B9000211C99000AFE0FBBB2E2FC005C006C0CC
:1012C900079000ABE0FAA3E0FFBAFF05BFFF028079
:1012D90009D007D006D0050211C9D007D006D0051C
:1012E9009000ABE4F0A3F00211C9BB61004014EB1C
:1012F9002485400F9000AF74DF5BF0900085740186
:10130900F08005900085E4F09000AFE0FBBB20027F
:101319008075BB2B028067BB2D028059BB420280BE
:101329006FBB4302807CBB44030215B3BB46030277
:1013390015D9BB48030211C9BB49030215B3BB4AFE
:10134900030211C9BB4C028050BB4F030215C1BB3C
:101359005003021521BB53028077BB54030211C904
:10136900BB55030215C9BB58030215D1BB5A030269
:1013790011C90215E190009F7401F00211C9900092
:10138900A17401F00211C99000A27401F00211C9FF
:101399009000A47401F00211C99000A57401F00233
:1013A90011C99000A4E0600E90009CE014F9F0903F
:1013B90000AFE7F0800F90009CE024FEFFF08F0162
:1013C9009000AFE7F09000AFE0F58212104F0215E0
:1013D900F090009CE024FDFFF08F01870509870646
:1013E900098707191990008BEDF0EEA3F0EFA3F030
:1013F9008D828E838FF0121A31858215858316901E
:1014090000ABE0FAA3E0FDBAFF0DBDFF0A9000AB07
:10141900E515F0E516A3F090009FE0704B9000A948
:10142900E0FAA3E0FDC3E5159AE5169D503A900050
:10143900A9EAC39515F0ED9516A3F09000A9E0FA75
:10144900A3E0FD8A068D071ABAFF011DEE4F601051
:10145900758220C005C00212104FD002D00580E36A
:101469009000A9EAF0EDA3F09000ABE0F518A3E035
:10147900F51990008BE0FAA3E0FDA3E0FF8A828DC5
:10148900838FF0121A69F517603CC3E495187480CC
:101499008519F063F08095F0502C151874FFB51874
:1014A90002151985178212104F90008BE0FAA3E0FC
:1014B900FDA3E0FF0ABA00010D90008BEAF0EDA34D
:1014C900F0EFA3F080AC90009FE070030215F0905C
:1014D90000A9E0FEA3E0FFC3E5159EE5169F4003C2
:1014E9000215F09000A9EEC39515F0EF9516A3F03B
:1014F9009000A9E0FEA3E0FF8E028F051EBEFF014A
:101509001FEA4D70030215E8758220C007C0061254
:10151900104FD006D00780E090009CE024FDFDF03C
:101529008D01871A09871B09871C191990008BE5FA
:101539001AF0E51BA3F0E51CA3F090008DE0FDBDBA
:10154900800040089000AF7443F08020BD600040E7
:10155900089000AF7450F08013BD4000400890001F
:10156900AF7449F080069000AF7458F09000AFE076
:10157900FDF582C00512104F75823A12104F75821F
:101589003012104F75827812104FD005BD49028074
:101599000EBD5002800990008CE0F5821210AA90CD
:1015A900008BE0F5821210AA803D9000A37401F02F
:1015B9009000A8740AF0802F9000A87408F0802782
:1015C9009000A8740AF0801F9000A87410F080178A
:1015D9009000A67401F0800F8B8212104F80089042
:1015E90000A9EEF0EFA3F09000A6E0607190009CD6
:1015F900E024FCFFF08F01870309870509870609A5
:10160900870719191990008BEBF0EDA3F0EEA3F001
:10161900EFA3F090008B7405F0741DA3F07480A300
:10162900F090008BE0F51AA3E0F51BA3E0F51C741C
:1016390001251AFAE4351BFBAF1C90008BEAF0EB8D
:10164900A3F0EFA3F0851A82851B83851CF0121A7B
:1016590069FF700302115B8F8212104F80C39000E3
:10166900A8E0700302115B9000A4E0604790009C21
:10167900E014F9F087077E007D007B0090008BEF76
:10168900F0EEA3F0EDA3F0EBA3F09000A3E060036C
:1016990002173390008BE0FBA3E0A3E0A3E07D00F9
:1016A9007E007F0090008BEBF0EDA3F0EEA3F0EF4E
:1016B900A3F080769000A5E0602890009CE024FCCF
:1016C900FFF08F018703098705098706098707192D
:1016D900191990008BEBF0EDA3F0EEA3F0EFA3F056
:1016E900804890009CE024FEFFF08F01870609875F
:1016F9000719EF3395E0FDFB90008BEEF0EFA3F0B7
:10170900EDA3F0EBA3F09000A3E0701E90008BE036
:10171900FBA3E0FDA3E0A3E07E007F0090008BEB3C
:10172900F0EDA3F0EEA3F0EFA3F09000A3E0604189
:1017390090008BE0FBA3E0FDA3E0FEA3E0FF30E710
:101749002B90008BE0FBA3E0FDA3E0FEA3E0FFC329
:10175900E49BFBE49DFDE49EFEE49FFF90008BEB80
:10176900F0EDA3F0EEA3F0EFA3F080059000A3E461
:10177900F09000A77401F09000A8E0F518751DB568
:10178900751E00E4F515F51690008FE4F0851882B2
:101799001210C69000A7E0703390008FE0C454F097
:1017A900F51A90008FE0C4540F451AF51A851D8269
:1017B900851E83E0FFE51A4207851D82851E83EF9A
:1017C900F0151D74FFB51D02151E800C90008FE0E9
:1017D900FF851D82851E83F00515E4B515020516E2
:1017E9009000A7E0B40100E433F090008BE0FAA385
:1017F900E0FBA3E0FEA3E0FFEA4B4E4F708A9000A6
:10180900B6E51DF0E51EA3F09000ADE515F0E5166F
:10181900A3F09000A9E0F5F0A3E045F0700990006D
:10182900A97401F0E4A3F09000A0E0FFE0704790F4
:10183900009FE0704185151D85161E9000A9E0FAEC
:10184900A3E0FBC007AF1D0F8F067F00C3EE9AEF21
:101859009BD0075019758220C007C003C00212101F
:101869004FD002D003D0071ABAFF011B80D59000D0
:10187900A9EAF0EBA3F09000A3E0602075822DC0E7
:101889000712104FD0079000A9E024FFFDA3E03410
:10189900FFFE9000A9EDF0EEA3F080569000ADE0B8
:1018A900F5F0A3E045F0604A9000A1E06020758260
:1018B9002BC00712104FD0079000A9E024FFFDA309
:1018C900E034FFFE9000A9EDF0EEA3F08024900033
:1018D900A2E0601E758220C00712104FD007900049
:1018E900A9E024FFFDA3E034FFFE9000A9EDF0EE8E
:1018F900A3F090009FE070489000ADE0F51DA3E0D3
:10190900F51E9000A9E0FAA3E0FBC0078A068B0741
:101919001ABAFF011BC3E51D9EE51E9FD007505350
:10192900EF60067D307E0080047D207E008D82C0C0
:1019390007C003C00212104FD002D003D00780CADB
:101949009000A9E0FEA3E0FF9000ADE0F51DA3E043
:10195900F51EC3E51D9EE51E9F500F9000A9EEC31D
:10196900951DF0EF951EA3F080119000A9E4F0A356
:10197900F080089000A9EAF0EBA3F09000B6E0FE31
:10198900A3E0FF9000ADE0F51DA3E0F51EAA1DAD93
:101999001E151D74FFB51D02151EEA4D6045900008
:1019A900A7E0B40100E433F09000A7E070140EBE84
:1019B90000010F8E828F83E0C4540FFD90008FF0D9
:1019C900800E8E828F83E0FD53050F90008FEDF01E
:1019D90090008FE0F582C007C00612108AD006D0A9
:1019E9000780AA90009FE0700302115B9000A9E0B4
:1019F900FEA3E0FF8E038F051EBEFF011FEB4D7096
:101A09000302115B758220C007C00612104FD00671
:101A1900D00780E08C8212104F02115B900090E099
:081A2900FEA3E08E82F583228A
:0B1D05003C4E4F20464C4F41543E0026
:101A3100AA82AB83121A696003A380F8C3E5829A74
:101A4100F582E5839BF58322AA83AB828BF090001C
:101A5100B8E0A4F8A9F08AF0E0A429F98BF0A3E09A
:081A6100A429F58388822222EA
:10000600E58124FCC3C8C0E0C082E608467006E568
:10001600824583601218E58296F58208E58396424A
:100026008208E5F0964582D082C8D0E0C822758164
:0B00360020121AF1E5826003020003B3
:101A690020F71430F6148883A88220F507E6A883A6
:101A790075830022E280F7E49322E022A882A983F9
:101A8900AAF0FB88F09000BAE0A4FCADF089F0E080
:101A9900A42DFDE435F0FE88F0A3E0A42DFDE5F0CA
:101AA9003EFEE433FF89F0E0A42EFEE5F03FFF8817
:101AB900F0A3E0A42EFEE5F03FFF8AF09000BAE023
:101AC900A42EFEE5F03FFF8BF0E0A42FFF8AF0A3E0
:101AD900E0A42FFF89F0A3E0A42FFF88F0A3E0A4DE
:0C1AE9002F8EF08D838C822275820022EB
:00000001FF
