:0400000002006F3259
:01000B0032C2
:0100130032BA
:01001B0032B2
:0100230032AA
:01002B0032A2
:0D006F0075810712006BE58260030200330B
:07007C0074004400602974C8
:05008300AE2400F97439
:05008800003400FA90B5
:06008D0000AE780075A032
:0D00930000E493F2A308B8000205A0E58286
:0B00A000B501F1E583B502EC75A0FF8F
:0300AB000200331D
:0500330012003880FE00
:0E0038007590FF12004775900012004780F28D
:010046002297
:040047007A007B00C0
:0B004B00C3EA9455EB648094825014CB
:040056007C557D0256
:05005A001CBCFF011DAC
:04005F00EC4D70F7FD
:070063000ABA00E40B80E182
:01006A002273
:03006B007582009B
:01006E00226F
:00000001FF
