:1000C300AF83E582900001F0EFA3F0900001E0FE22
:1000D300A3E0FF8E048F051EBEFF011F900001EEFB
:1000E300F0EFA3F0EC4D70EB900001EEF0EFA3F016
:1000F30022C295D2969000F9E0FDA3E0FEA3E0FFB3
:100103008D828E838FF0121F88FDA3121F885305E3
:10011300807E00BD8005BE000280DA22E582900069
:1001230003F09000F5E0FDA3E0FEA3E0FF900003E1
:10013300E0FC7B008D828E838FF0EC120E60A3EBCC
:10014300020E60C295C29675823012011F9027106D
:100153001200C375823012011F9027101200C3755D
:10016300823012011F9027101200C37582381201CA
:100173001F9000641200C375820F12011F90006468
:100183001200C375820612011F9000641200C3752A
:10019300820112011F9000641200C30200F4E58281
:1001A300900004F01200F4D295C2969000F5E0FDA1
:1001B300A3E0FEA3E0FF900004E0FC7B008D828EB1
:1001C300838FF0EC120E60A3EB020E60E5829000C9
:1001D30005F01200F4D295C2969000F5E0FDA3E07D
:1001E300FEA3E0FF900005E0FC7B008D828E838FF1
:1001F300F0EC120E60A3EB120E609000F8E0FFBF6C
:100203000F089000F87440F08026BF4F089000F864
:100213007410F0801BBF1F089000F87450F080101A
:10022300BF58079000F8E4F080069000F8EF04F060
:100233009000F8E0F58202023CE582900006F0129D
:1002430000F4C295C296900006E04480F582020154
:100253001FAFF0AE83E582900007F0EEA3F0EFA3AB
:10026300F0900007E0FDA3E0FEA3E0FF8D828E8304
:100273008FF0121F88FC60238C82C007C006C00564
:100283001201CFD005D006D0070DBD00010E90009E
:1002930007EDF0EEA3F0EFA3F080D1900007EDF0AF
:1002A300EEA3F0EFA3F0221200F4C295C29675827A
:1002B3000112011F9000F8E4F075820002023CE590
:1002C3008290000BF090000CE4F090000BE0FFBF75
:1002D3000102800FBF02028014BF0302801DBF040E
:1002E30050802690000AE090000CF0804490000AB1
:1002F300E0FF90000C74402FF0803690000AE0FF7E
:1003030090000C74102FF0802890000AE0FFBF09C2
:1003130000500990000C74502FF080157414C0E045
:100323007420C0E07480C0E012153C15811581155E
:100333008190000CE0F58202023CC295D2969000B7
:10034300F5E0FDA3E0FEA3E0FF8D828E838FF01224
:100353001F88FD53057F8D82221200F4D295D29619
:100363009000F5E0FDA3E0FEA3E0FF8D828E838F76
:10037300F0121F88FDA3121F8853057F7E008D8214
:100383008E832290000D745FF0E4A3F090000FF0D1
:10039300A3F090000DE0FEA3E0FF90000DE0F5F068
:1003A300A3E045F070012290000FE0FCA3E0FDC044
:1003B30007C006C005C004C004C005742CC0E074A7
:1003C30020C0E07480C0E012153CE58124FBF58178
:1003D300D004D005D006D0077A007B00C3EA94107E
:1003E300EB6480948050548C018982C007C006C09E
:1003F30005C004C003C00212023C12035CA882A918
:1004030083C000C0017433C0E07420C0E07480C0B6
:10041300E012153CE58124FBF581D002D003D00422
:10042300D005D006D0070CBC00010D1EBEFF011F76
:10043300EE4F60070ABA00A40B80A190000FECF006
:10044300EDA3F090000DEEF0EFA3F07439C0E0746B
:1004530020C0E07480C0E012153C15811581158120
:03046300020395FC
:10201400656E7465722076616C696420636F6C759B
:102024006D6E202F6E2F7200252E33783A200025F6
:082034002E327820000A0D0095
:0723220000800000F500003F
:040000000200673261
:01000B0032C2
:0100130032BA
:01001B0032B2
:0100230032AA
:01002B0032A2
:0300330002047B49
:0300C00002003605
:030036000204E1E0
:10046600D2AF43D90375EB6A75FBDC75DB49D2DE87
:10047600D2AEC29222C021C0E0C0F0C082C083C00A
:1004860007C006C005C004C003C002C001C000C04A
:10049600D075D00075F90075E900C2D9B292120381
:1004A6003DAF829000FCE0F5F0A3E045F0600AC0A5
:1004B600071209151209D8D0078F8212023CD0D034
:1004C600D000D001D002D003D004D005D006D0078A
:1004D600D083D082D0F0D0E0D021321207DB1201D7
:1004E6004690203C75F08012148E90206A75F0803C
:1004F60012148E90208575F08012148E9020A475AB
:10050600F08012148E9020D075F08012148E9020F8
:10051600EE75F08012148E90210975F08012148EFB
:1005260090212975F08012148E90214475F0801266
:10053600148E90216375F08012148E90217E75F0D2
:100546008012148E90001175F00012089C90001114
:10055600E0FFBF31119021A075F08012148E1208B1
:10056600101201CF80D5BF320280030206669021A9
:10057600CC75F08012148E90001675F00012089C4F
:1005860090007AE4F0A3F0A3F090007D7410F0E4FC
:10059600A3F090001675F000120C33AB82E583FCD5
:1005A6003392004011C3740F9B74808CF063F0800B
:1005B60095F092005004C2008002D200C3EB944032
:1005C600EC6480948092014011C3744F9B74808CBC
:1005D600F063F08095F092015004C2018002D201CE
:1005E600A200E433FEA201E4334206C3EB9410EC0E
:1005F6006480948092014011C3741F9B74808CF0B8
:1006060063F08095F092015004C2018002D201A2EB
:1006160001E4334206C3EB9450EC6480948092016B
:100626004011C374589B74808CF063F08095F092EF
:10063600015004C2018002D201A201E4334E6008D7
:100646008B8212023C02054174E6C0E07421C0E0D0
:100656007480C0E012153C15811581158102054193
:10066600BF336F9021FC75F08012148E90004D758B
:10067600F00012089C90007AE4F0A3F0A3F090003A
:100686007D740AF0E4A3F090004D75F000120C336F
:10069600AB8290221A75F080C00312148E9000521D
:1006A60075F00012089C90007AE4F0A3F0A3F09095
:1006B600007D740AF0E4A3F090005275F000120C6D
:1006C60033AA82D00390000AEAF08B821202C20299
:1006D6000541BF341E90223A75F08012148E9000A8
:1006E6001B75F00012089C90001B75F00012025456
:1006F600020541BF350F90225D75F08012148E12EF
:1007060002AA020541BF361590227175F0801214B7
:100716008E9000FC7401F0E4A3F0020541BF37138C
:1007260090228275F08012148E9000FCE4F0A3F003
:10073600020541BF380F90229075F08012148E1278
:100746000B8E020541BF390F90229F75F08012145F
:100756008E120386020541BF3F5D90203C75F080F6
:1007660012148E90206A75F08012148E9020857572
:10077600F08012148E9020A475F08012148E9020B2
:10078600D075F08012148E9020EE75F08012148EC3
:1007960090210975F08012148E90212975F080122F
:1007A600148E90214475F08012148E90216375F09A
:1007B6008012148E020541BF300F9022B075F08072
:1007C60012148E12035C0205419022DD75F0801230
:0507D600148E02054134
:10203C005072657373203120746F207772697465E8
:10204C00206461746120617420746865206375720A
:10205C0072656E7420637572736F72200D0050720E
:10206C00657373203220746F20676F20746F20614A
:10207C00646472657373200D005072657373203342
:10208C0020746F20676F20746F20782C7920616426
:10209C006472657373200D00507265737320342065
:1020AC00746F20777269746520737472696E67201F
:1020BC0061742063757272656E7420637572736FD0
:1020CC0072200D005072657373203520746F20637D
:1020DC006C656172204C43442073637265656E209D
:1020EC000D005072657373203620746F2072657307
:1020FC007461727420636C6F636B200D0050726599
:10210C007373203720746F2073746F7020636C6F3F
:10211C00636B20646973706C6179200D005072657B
:10212C007373203820746F2072657374617274201D
:10213C00636C6F636B200D005072657373203920D4
:10214C00746F20666F7220444452414D206865784C
:10215C0064756D70200D005072657373203F207490
:10216C006F20666F722075736572206D656E7520B9
:10217C000D003C3C456E74657220636F6D6D616E35
:10218C006420666F72206F7065726174696F6E3E49
:10219C003E0A0D00456E746572206368617261635E
:1021AC0074657220746F207075742061742063756F
:1021BC007272656E7420637572736F72200A0D00F3
:1021CC00456E746572206164647265737320746FFC
:1021DC0020676F20746F200A0D00456E74657220A5
:1021EC0076616C696420616464726573730A0D00B6
:1021FC00456E74657220726F772D312C322C332C16
:10220C003420746F20676F20746F200A0D00456EA8
:10221C0074657220636F6C756D6E2028302D3135AE
:10222C002920746F20676F20746F200A0D00456E93
:10223C0074657220737472696E6720746F2070728B
:10224C00696E7420617420637572736F72200A0D4D
:10225C0000436C656172206C636420736372656506
:10226C006E200A0D005265737461727420636C6F7A
:10227C00636B200A0D0053746F7020636C6F636B7B
:10228C00200A0D00526573657420636C6F636B20BC
:10229C000A0D00444452414D2068657864756D7098
:1022AC00200A0D00456E746572206368617261636B
:1022BC0074657220746F2072656164206174206390
:1022CC00757272656E7420637572736F72200A0D6D
:1022DC0000456E74657220612076616C69642063C0
:1022EC006F6D6D616E64206F7220707265737320F8
:1022FC00273F2720666F722075736572206D656E9F
:05230C0075200A0D0020
:022329000100B1
:1007DB00758920758DFD759850D28ED29922AF8375
:1007EB00E582900057F0EFA3F03099FD3099FDE5CD
:1007FB009830E1FB900057E0FEA3E0FF8E99C29981
:10080B008E828F83223098FDE59830E0FB109802A2
:10081B0080FBAE997F008E828F8322AFF0AE83E593
:10082B0082900059F0EEA3F0EFA3F0900059E0FD99
:10083B00A3E0FEA3E0FF7B007C008D828E838FF014
:10084B00121F88FA60360DBD00010E900059EDF0B5
:10085B00EEA3F0EFA3F08A017A0089828A83C007A6
:10086B00C006C005C004C0031207E9D003D004D0F2
:10087B0005D006D0070BBB00C10C80BE900059ED14
:10088B00F0EEA3F0EFA3F00BBB00010C8B828C837B
:10089B0022AFF0AE83E58290005CF0EEA3F0EFA305
:1008AB00F07E007F0090005CE0FBA3E0FCA3E0FD8A
:1008BB00C007C006C005C004C003120810A982D02F
:1008CB0003D004D005D006D0078B828C838DF0E942
:1008DB00120E60A3AB82AC830EBE00010F90005CC6
:1008EB00EBF0ECA3F0EDA3F0B90DC590005CEBF0D1
:1008FB00ECA3F0EDA3F08B828C838DF0E4120E60F1
:10090B000EBE00010F8E828F83229000FEE0FEA3AD
:10091B00E0FF9000FE74142EF0E43FA3F09000FE75
:10092B00E0FEA3E0FFC3EE9464EF9400400E900151
:10093B0000E02401F09000FEE4F0A3F0900100E051
:10094B00FFBF0A004011900101E02401F0A3E03445
:10095B0000F0900100E4F0900101E0FEA3E0FFBE87
:10096B003C16BF0013900103E02401F0A3E0340018
:10097B00F0900101E4F0A3F022AFF0AE83E582909A
:10098B000070F0EEA3F0EFA3F090006EE0FEA3E09A
:10099B00FF9000A2740AF0E4A3F08E828F831212F0
:1009AB00C4AE82900070E0FBA3E0FCA3E0FD7401F9
:1009BB002BF8E43CF98D0274302E888289838AF0FF
:1009CB00120E608B828C838DF0E4020E609001001E
:1009DB00E090006EF0E4A3F090005F75F000120958
:1009EB008475825F12023C900060E0F5821201A1D7
:1009FB0075825E12023C75822E1201A1900101E0FC
:100A0B00FEA3E0FFC374099EE49F403775825D121D
:100A1B00023C900101E0FEA3E0FF90006EEEF0EFD0
:100A2B00A3F090006475F000120984900065E0F566
:100A3B00821201A175825C12023C7582301201A1F7
:100A4B00020AC675825D12023C900101E0FEA3E032
:100A5B00FF9000A6740AF0E4A3F08E828F8312132A
:100A6B002CAE82AF8390006EEEF0EFA3F09000649B
:100A7B0075F000120984900065E0F5821201A175F2
:100A8B00825C12023C900101E0FEA3E0FF90007338
:100A9B00740AF0E4A3F08E828F83120BA6AE82AFA2
:100AAB008390006EEEF0EFA3F090006475F00012EF
:100ABB000984900065E0F5821201A175825B120238
:100ACB003C75823A1201A1900103E0FEA3E0FFC343
:100ADB0074099EE49F403475825A12023C900103C4
:100AEB00E0FEA3E0FF90006EEEF0EFA3F090006944
:100AFB0075F00012098490006AE0F5821201A1756D
:100B0B00825912023C7582300201A175825A12027F
:100B1B003C900103E0FEA3E0FF9000A6740AF0E412
:100B2B00A3F08E828F8312132CAE82AF8390006E54
:100B3B00EEF0EFA3F090006975F0001209849000BD
:100B4B006AE0F5821201A175825912023C900103F1
:100B5B00E0FEA3E0FF900073740AF0E4A3F08E8232
:100B6B008F83120BA6AE82AF8390006EEEF0EFA3D5
:100B7B00F090006975F00012098490006AE0F5822C
:100B8B000201A19000FEE4F0A3F0900100F09001AF
:0B0B9B0001F0A3F0900103F0A3F02292
:07232B0000000000000000AB
:100BA600AF83E582900075F0EFA3F0900077E4F054
:100BB600A3F0900073E0FEA3E0FF7D10900075E0C7
:100BC600FBA3E0FC900079235401F0EB2BFBEC3304
:100BD600FC900075EBF0ECA3F0900077E0FBA3E04F
:100BE600FCEB2BFBEC33FC900077EBF0ECA3F090E6
:100BF6000079E06008900077E043E001F09000772C
:100C0600E0FBA3E0FCC3EB9EEC9F4013900077EB68
:100C1600C39EF0EC9FA3F0900075E043E001F0DD89
:100C26009B900075E0FEA3E08E82F58322AFF0AEC6
:100C360083E58290007FF0EEA3F0EFA3F090007FB3
:100C4600E0FDA3E0FEA3E0FF8D828E838FF0121FEE
:100C560088FCBC20028003BC09070DBD00EA0E809B
:100C6600E7900082EDF0EEA3F0EFA3F08D828E8385
:100C76008FF0121F88FCBC2D149000887401F09030
:100C860000822DF0E43EA3F0EFA3F08005900088EB
:100C9600E4F0900088E06079900082E0FDA3E0FE39
:100CA600A3E0FF8D828E838FF0121F88FDBD200288
:100CB6008022BD0902801D900082E0FDA3E0FEA314
:100CC600E0FF8D828E838FF0121F88FFBF2D02807A
:100CD60003BF2B3D90007AE0FDA3E0FEA3E0FF906A
:100CE600007AE0F5F0A3E045F0601F90007FE0FA9F
:100CF600A3E0FBA3E0FC8D828E838FF0EA120E60E8
:100D0600A3EB120E60A3EC120E60900000E4F5F067
:100D160022900082E0FDA3E0FEA3E0FF90007DE0CC
:100D2600FBA3E0FC90008D7485F07400A3F0E4A3AF
:100D3600F0900090EBF0ECA3F08D828E838FF01292
:100D46000EE0AC82AD83AEF0FF900085E0F508A31F
:100D5600E0F509A3E0F50A900082E0F8A3E0FAA323
:100D6600E0FBC008C009C00A88828A838BF01200A3
:100D760039158115811581704390007AE0F50BA332
:100D8600E0F50CA3E0F50D90007AE0F5F0A3E04560
:100D9600F0602290007FE0F8A3E0FAA3E0FB850B69
:100DA60082850C83850DF0E8120E60A3EA120E60B0
:100DB600A3EB120E60900000E4F5F02290007AE0BA
:100DC600F9A3E0FAA3E0FB90007AE0F5F0A3E04592
:100DD600F0601789828A838BF0E508120E60A3E51E
:100DE60009120E60A3E50A120E60900088E07021D9
:100DF600C374FF9C74FF9D74FF9E747F9F50129076
:100E060000F37422F0E4A3F090FFFF75F0FF747F07
:100E160022900088E0601EC3E49CE49DE49E7480FA
:100E26009F50129000F37422F0E4A3F0900000E4C7
:100E3600F5F0748022900088E0600FC3E49CF8E42B
:100E46009DF9E49EFAE49FFB80088C008D018E02DA
:0A0E56008F03888289838AF0EB2263
:06009600E478FFF6D8FD3E
:100074007910E94400601B7A0190232278F575A079
:1000840000E493F2A308B8000205A0D9F4DAF275EB
:02009400A0FFCB
:100E600020F71130F6138883A88220F509F6A883AD
:100E70007583002280FEF280F5F022E58290008BDF
:100E8000F0E0FFBF3000400EEF24C64009EF24D051
:100E900090008CF0803490008BE0FFBF6100400E2A
:100EA000EF2485400990008C74A92FF0801C9000DD
:100EB0008BE0FFBF4100400EEF24A5400990008C5D
:100EC00074C92FF080047582FF2290008CE0FF909F
:100ED000008AE0FEC3EF9E40047582FF228F8222CB
:100EE000AFF0AE83E582900092F0EEA3F0EFA3F0B6
:100EF000900092E0FDA3E0FEA3E0FF90009CE4F0F0
:100F000090009DF08D828E838FF0121F88FCBC2094
:100F1000028003BC09070DBD00EA0E80E790009532
:100F2000EDF0EEA3F0EFA3F08D028E038F048D821F
:100F30008E838FF0121F88FFBF2B028009BF2D14F4
:100F400090009D7401F090009574012AF0E43BA399
:100F5000F0ECA3F0900090E0FEA3E0FF900090E0A2
:100F6000F5F0A3E045F06003021035900095E0FB3A
:100F7000A3E0FCA3E0FD9000AB7411F07423A3F098
:100F80007480A3F09000AE7402F0E4A3F08B828C26
:100F9000838DF01213D8E5828583F045F06034909C
:100FA0000095E0FBA3E0FCA3E0FD9000AB7414F01F
:100FB0007423A3F07480A3F09000AE7402F0E4A355
:100FC000F08B828C838DF01213D8E5828583F045F7
:100FD000F070259000907410F0E4A3F0900095E07C
:100FE000FBA3E0FCA3E0FD90009574022BF0E43C31
:100FF000A3F0EDA3F00210C1900095E0FBA3E0FC8C
:10100000A3E0FD8B828C838DF0121F88FABA301911
:101010009000907408F0E4A3F0900095042BF0E4A5
:101020003CA3F0EDA3F00210C1900090740AF0E42C
:10103000A3F00210C1BE1005BF000280030210C160
:10104000900095E0FDA3E0FEA3E0FF9000AB7411DB
:10105000F07423A3F07480A3F09000AE7402F0E467
:10106000A3F08D828E838FF01213D8E5828583F0F2
:1010700045F06034900095E0FDA3E0FEA3E0FF9012
:1010800000AB7414F07423A3F07480A3F09000AE4E
:101090007402F0E4A3F08D828E838FF01213D8E5F2
:1010A000828583F045F07019900095E0FDA3E0FE85
:1010B000A3E0FF90009574022DF0E43EA3F0EFA3AF
:1010C000F0900095E0FDA3E0FEA3E0FF8D828E830B
:1010D0008FF0121F88FC900090E0FAA3E0FB9000D4
:1010E0008AEAF08C82C007C006C005C003C00212A5
:1010F0000E7BAC82D002D003D005D006D007EC30F6
:10110000E74390008DE0F50EA3E0F50FA3E0F510A6
:1011100090008DE0F5F0A3E045F06022900092E0B1
:10112000F8A3E0F9A3E0FC850E82850F838510F01B
:10113000E8120E60A3E9120E60A3EC120E6090009C
:1011400000E4F5F022900098E4F0A3F0A3F0A3F0FF
:101150008A0E8B0F8D828E838FF0121F88FA90007B
:101160008AE50EF08A82C007C006C005120E7BAA6F
:1011700082D005D006D007EA30E703021249C00248
:10118000900098E0F8A3E0F9A3E0FAA3E0FC900057
:101190009EE8F0E9A3F0EAA3F0ECA3F09000EFE5FD
:1011A0000EF0E50FA3F0E50F3395E0A3F0A3F08870
:1011B0008289838AF0ECC007C006C005121FA4A96B
:1011C00082AA83ABF0FCD005D006D007900098E946
:1011D000F0EAA3F0EBA3F0ECA3F0900098E0F51197
:1011E000A3E0F512A3E0F513A3E0F51490009EE050
:1011F000F8A3E0FAA3E0FBA3E0FCC3E51198E51235
:101200009AE5139BE5149CD002500690009C740153
:10121000F0900098E0F511A3E0F512A3E0F513A318
:10122000E0F5148A017A007B007C00900098E925A3
:1012300011F0EA3512A3F0EB3513A3F0EC3514A34B
:10124000F00DBD00010E02115490008DE0FAA3E0F4
:10125000FBA3E0FC90008DE0F5F0A3E045F0601406
:101260008A828B838CF0ED120E60A3EE120E60A3C7
:10127000EF120E6090009CE060119000F37422F079
:10128000E4A3F090FFFF74FFF5F02290009DE06072
:101290001D900098E0FCA3E0FDA3E0FEA3E0FFC3E7
:1012A000E49CFCE49DFDE49EFEE49FFF800E900024
:1012B00098E0FCA3E0FDA3E0FEA3E0FF8C828D8319
:0412C0008EF0EF229B
:0623110030780030580096
:1012C400AF83E5829000A4F0EFA3F09000A4E0FEC9
:1012D400A3E0FF30E709C3E49EFCE49FFD80048E95
:1012E400048F059000A2E0FEA3E0FF30E709C3E409
:1012F4009EFAE49FFB80048E028F039000A6EAF01E
:10130400EBA3F08C828D8312132CAE82AF839000FA
:10131400A4E0A3E030E70CC3E49EFCE49FFD8C82D0
:101324008D83228E828F8322AF83E5829000A8F082
:10133400EFA3F09000AAE4F09000A8E0FEA3E0FF81
:101344007D009000A6E0FBA3E0FC235401FA703674
:10135400EB2BFBEC33FC9000A6EBF0ECA3F090003D
:10136400A6E0FBA3E0FCC3EE9BEF9C5011ECC3137F
:10137400CB13CBFC9000A6EBF0ECA3F080080D900F
:1013840000AAEDF080BC9000AAE0FF9000A8E0FD68
:10139400A3E0FE9000A6E0FBA3E0FCC3ED9BEE9C63
:1013A400400B9000A8EDC39BF0EE9CA3F09000A628
:1013B400E0FDA3E0C313CD13CDFE9000A6EDF0EE47
:1013C400A3F08F061FEE70C39000A8E0FEA3E08E8A
:0413D40082F58322F9
:10009C007800E84400600A790175A000E4F309D8FF
:1000AC00FC78F4E84400600C7901900001E4F0A3C2
:0400BC00D8FCD9FA99
:1013D800AFF0AE83E5829000B0F0EEA3F0EFA3F09B
:1013E8009000AEE0FEA3E0FF9000AEE0F5F0A3E0D1
:1013F80045F07004900000229000B0E0FBA3E0FCF0
:10140800A3E0FD9000ABE0F8A3E0F9A3E0FA1EBE6C
:10141800FF011FEE4F60418B828C838DF0121F8875
:10142800F5226034C006C007888289838AF0121FBB
:1014380088FFB522028006D007D006801BD007D0CF
:10144800060BBB00010C9000B0EBF0ECA3F0EDA391
:10145800F008B800B90980B69000B0EBF0ECA3F042
:10146800EDA3F08B828C838DF0121F88FB7F0088A0
:101478008289838AF0121F88F87E00EBC398FBEFFD
:101488009E8B82F58322AFF0AE83E5829000B3F0A5
:10149800EEA3F0EFA3F09000B3E0FDA3E0FEA3E01D
:1014A800FF8D828E838FF0121F88FC60330DBD0084
:1014B800010E9000B3EDF0EEA3F0EFA3F07B008CEB
:1014C800828B83C007C006C0051207E9AB82AC83D4
:1014D800D005D006D007BBFFC8BCFFC590FFFF22D0
:1014E80090000A0207E9C01F85811F7E008E8312C3
:1014F80007E9D01F22AFF0AE83E5829000B7F0EE87
:10150800A3F0EFA3F09000B7E0FDA3E0FEA3E0FF97
:101518009000B6E0FC9000CBE4F0A3F0A3F09000BC
:10152800CEEDF0EEA3F0EFA3F09000D1ECF0901424
:10153800EE021642C01FE581F51F24FBFF9000CB89
:10154800E4F0A3F0A3F0E51F24FBF89000CEE6F04A
:1015580008E6A3F008E6A3F09000D1EFF09014EEAF
:10156800121642D01F22E5829000C7F0E0FF9000DB
:10157800BDE0C0E0A3E0C0E0A3E0C0E012158980B0
:101588000D9000BBE0C0E0A3E0C0E08F822215818F
:10159800158115819000C5E02401F0A3E03400F026
:1015A80022E5829000C8F0E02430FF24C6500D7474
:1015B800072FFF9000BAE060034307208F820215CF
:1015C8006EE5829000C9F0E0FFC4540FF582C007B1
:1015D8001215A9D00753070F8F820215A9E582902B
:1015E80000CAF09000C0E0FCA3E0FDA3E0FEA3E089
:1015F800FF9000C4E0FB9000CAE0FA79208B00E875
:1016080028F522EF2354014522FBEC2CFCED33FD99
:10161800EE33FEEF33FFC3EB9A4007EBC39AFB436D
:10162800040119E970D79000C0ECF0EDA3F0EEA327
:10163800F0EFA3F09000C4EBF022AF83E5829000B6
:10164800D2F0EFA3F09000D2E0FEA3E0FF9000BB41
:10165800EEF0EFA3F09000CBE0FDA3E0FEA3E0FFE7
:101668009000BDEDF0EEA3F0EFA3F09000C5E4F01C
:10167800A3F09000CEE0FDA3E0FEA3E0FF8D828EF4
:10168800838FF0121F88FC9000CE74012DF0E43E89
:10169800A3F0EFA3F0EC7003021F44BC2502800303
:1016A800021F3C9000D4E4F09000D5F09000D6F0F2
:1016B8009000D7F09000D8F09000D9F09000DAF0C0
:1016C8009000DBF09000DDF09000DEF0A3F09000D9
:1016D800E014F0A3F09000CEE0FDA3E0FEA3E0FF4D
:1016E8008D828E838FF0121F88FBA3AD82AE83900C
:1016F80000CEEDF0EEA3F0EFA3F09000E4EBF0BB2A
:1017080025088B8212156E02167ABB300050030230
:1017180017DBEB24C650030217DB9000E0E0F51559
:10172800A3E0F51674FFB51563B51660C005C006CD
:10173800C0079000DEE0FAA3E0FF9000EDEAF0EFCA
:10174800A3F090000AC005C003121F68AE82AF83E1
:10175800D003D0058B027D00EA2EFEED3FFFEE247C
:10176800D0FEEF34FFFF9000DEEEF0EFA3F0D007DD
:10177800D006D0059000DEE0F5F0A3E045F0600368
:101788000216E89000D57401F00216E8C005C006FC
:10179800C0079000EDE515F0E516A3F090000AC02B
:1017A80006C005C003121F68AA82AF83D003D00504
:1017B800D0067E00EB2AFAEE3FFFEA24D0FAEF3497
:1017C800FFFF9000E0EAF0EFA3F0D007D006D005C5
:1017D8000216E89000E4E0FBBB2E2FC005C006C04F
:1017E800079000E0E0FAA3E0FFBAFF05BFFF028020
:1017F80009D007D006D0050216E8D007D006D005D4
:101808009000E0E4F0A3F00216E8BB61004014EB9E
:101818002485400F9000E474DF5BF09000BA7401F7
:10182800F080059000BAE4F09000E4E0FBBB2002F1
:101838008075BB2B028067BB2D028059BB4202809A
:101848006FBB4302807CBB4403021AD2BB4603022F
:101858001AF8BB48030216E8BB4903021AD2BB4A6E
:10186800030216E8BB4C028050BB4F03021AE0BBD0
:101878005003021A40BB53028077BB54030216E898
:10188800BB5503021AE8BB5803021AF0BB5A0302FD
:1018980016E8021B009000D47401F00216E89000CC
:1018A800D67401F00216E89000D77401F00216E829
:1018B8009000D97401F00216E89000DA7401F00281
:1018C80016E89000D9E0600E9000D1E014F9F0908D
:1018D80000E4E7F0800F9000D1E024FEFFF08F01D4
:1018E8009000E4E7F09000E4E0F58212156E021B28
:1018F8000F9000D1E024FDFFF08F018705098706CE
:1019080009870719199000C0EDF0EEA3F0EFA3F0D6
:101918008D828E838FF0121F5085821585831690D5
:1019280000E0E0FAA3E0FDBAFF0DBDFF0A9000E079
:10193800E515F0E516A3F09000D4E0704B9000DEBA
:10194800E0FAA3E0FDC3E5159AE5169D503A90002C
:10195800DEEAC39515F0ED9516A3F09000DEE0FAE7
:10196800A3E0FD8A068D071ABAFF011DEE4F60102D
:10197800758220C005C00212156ED002D00580E322
:101988009000DEEAF0EDA3F09000E0E0F518A3E0A7
:10199800F5199000C0E0FAA3E0FDA3E0FF8A828D6C
:1019A800838FF0121F88F517603CC3E49518748084
:1019B8008519F063F08095F0502C151874FFB51850
:1019C80002151985178212156E9000C0E0FAA3E07F
:1019D800FDA3E0FF0ABA00010D9000C0EAF0EDA3F4
:1019E800F0EFA3F080AC9000D4E07003021B0F90DE
:1019F80000DEE0FEA3E0FFC3E5159EE5169F400369
:101A0800021B0F9000DEEEC39515F0EF9516A3F0BC
:101A18009000DEE0FEA3E0FF8E028F051EBEFF01F0
:101A28001FEA4D7003021B07758220C007C006120B
:101A3800156ED006D00780E09000D1E024FDFDF0BF
:101A48008D01871A09871B09871C19199000C0E5A1
:101A58001AF0E51BA3F0E51CA3F09000C2E0FDBD61
:101A6800800040089000E47443F08020BD6000408E
:101A7800089000E47450F08013BD400040089000C6
:101A8800E47449F080069000E47458F09000E4E0B3
:101A9800FDF582C00512156E75823A12156E7582B3
:101AA8003012156E75827812156ED005BD49028008
:101AB8000EBD500280099000C1E0F5821215C99050
:101AC80000C0E0F5821215C9803D9000D87401F07D
:101AD8009000DD740AF0802F9000DD7408F08027F4
:101AE8009000DD740AF0801F9000DD7410F08017FC
:101AF8009000DB7401F0800F8B8212156E800890C5
:101B080000DEEEF0EFA3F09000DBE060719000D112
:101B1800E024FCFFF08F0187030987050987060980
:101B280087071919199000C0EBF0EDA3F0EEA3F0A8
:101B3800EFA3F09000C07417F07423A3F07480A38F
:101B4800F09000C0E0F51AA3E0F51BA3E0F51C74C3
:101B580001251AFAE4351BFBAF1C9000C0EAF0EB34
:101B6800A3F0EFA3F0851A82851B83851CF0121F52
:101B780088FF700302167A8F8212156E80C3900058
:101B8800DDE0700302167A9000D9E060479000D13A
:101B9800E014F9F087077E007D007B009000C0EF1D
:101BA800F0EEA3F0EDA3F0EBA3F09000D8E0600313
:101BB800021C529000C0E0FBA3E0A3E0A3E07D007C
:101BC8007E007F009000C0EBF0EDA3F0EEA3F0EFF5
:101BD800A3F080769000DAE060289000D1E024FC41
:101BE800FFF08F0187030987050987060987071909
:101BF80019199000C0EBF0EDA3F0EEA3F0EFA3F0FD
:101C080080489000D1E024FEFFF08F018706098705
:101C18000719EF3395E0FDFB9000C0EEF0EFA3F05D
:101C2800EDA3F0EBA3F09000D8E0701E9000C0E0A8
:101C3800FBA3E0FDA3E0A3E07E007F009000C0EBE3
:101C4800F0EDA3F0EEA3F0EFA3F09000D8E0604130
:101C58009000C0E0FBA3E0FDA3E0FEA3E0FF30E7B7
:101C68002B9000C0E0FBA3E0FDA3E0FEA3E0FFC3D0
:101C7800E49BFBE49DFDE49EFEE49FFF9000C0EB27
:101C8800F0EDA3F0EEA3F0EFA3F080059000D8E408
:101C9800F09000DC7401F09000DDE0F518751DEAA5
:101CA800751E00E4F515F5169000C4E4F085188259
:101CB8001215E59000DCE070339000C4E0C454F0E5
:101CC800F51A9000C4E0C4540F451AF51A851D8210
:101CD800851E83E0FFE51A4207851D82851E83EF76
:101CE800F0151D74FFB51D02151E800C9000C4E090
:101CF800FF851D82851E83F00515E4B515020516BE
:101D08009000DCE0B40100E433F09000C0E0FAA3F6
:101D1800E0FBA3E0FEA3E0FFEA4B4E4F708A900081
:101D2800EBE51DF0E51EA3F09000E2E515F0E516E1
:101D3800A3F09000DEE0F5F0A3E045F07009900014
:101D4800DE7401F0E4A3F09000D5E0FFE070479066
:101D580000D4E0704185151D85161E9000DEE0FA5E
:101D6800A3E0FBC007AF1D0F8F067F00C3EE9AEFFD
:101D78009BD0075019758220C007C003C0021215F6
:101D88006ED002D003D0071ABAFF011B80D590008D
:101D9800DEEAF0EBA3F09000D8E0602075822DC059
:101DA8000712156ED0079000DEE024FFFDA3E03493
:101DB800FFFE9000DEEDF0EEA3F080569000E2E02A
:101DC800F5F0A3E045F0604A9000D6E06020758207
:101DD8002BC00712156ED0079000DEE024FFFDA38C
:101DE800E034FFFE9000DEEDF0EEA3F080249000DA
:101DF800D7E0601E758220C00712156ED0079000CC
:101E0800DEE024FFFDA3E034FFFE9000DEEDF0EEFF
:101E1800A3F09000D4E070489000E2E0F51DA3E044
:101E2800F51E9000DEE0FAA3E0FBC0078A068B07E8
:101E38001ABAFF011BC3E51D9EE51E9FD00750532C
:101E4800EF60067D307E0080047D207E008D82C09C
:101E580007C003C00212156ED002D003D00780CA93
:101E68009000DEE0FEA3E0FF9000E2E0F51DA3E0B5
:101E7800F51EC3E51D9EE51E9F500F9000DEEEC3C4
:101E8800951DF0EF951EA3F080119000DEE4F0A3FD
:101E9800F080089000DEEAF0EBA3F09000EBE0FEA3
:101EA800A3E0FF9000E2E0F51DA3E0F51EAA1DAD3A
:101EB8001E151D74FFB51D02151EEA4D60459000E4
:101EC800DCE0B40100E433F09000DCE070140EBEF6
:101ED80000010F8E828F83E0C4540FFD9000C4F080
:101EE800800E8E828F83E0FD53050F9000C4EDF0C5
:101EF8009000C4E0F582C007C0061215A9D006D02C
:101F08000780AA9000D4E0700302167A9000DEE001
:101F1800FEA3E0FF8E038F051EBEFF011FEB4D7071
:101F28000302167A758220C007C00612156ED00605
:101F3800D00780E08C8212156E02167A9000C5E0F8
:081F4800FEA3E08E82F5832266
:0B2317003C4E4F20464C4F41543E000E
:101F5000AA82AB83121F886003A380F8C3E5829A2C
:101F6000F582E5839BF58322AA83AB828BF09000F8
:101F7000EDE0A4F8A9F08AF0E0A429F98BF0A3E041
:081F8000A429F58388822222C6
:10003900E58124FCC3C8C0E0C082E608467006E535
:10004900824583601218E58296F58208E583964217
:100059008208E5F0964582D082C8D0E0C822758131
:0B00690022122010E582600302003626
:101F880020F71430F6148883A88220F507E6A88382
:101F980075830022E280F7E49322E022A882A983D5
:101FA800AAF0FB88F09000EFE0A4FCADF089F0E027
:101FB800A42DFDE435F0FE88F0A3E0A42DFDE5F0A6
:101FC8003EFEE433FF89F0E0A42EFEE5F03FFF88F3
:101FD800F0A3E0A42EFEE5F03FFF8AF09000EFE0CA
:101FE800A42EFEE5F03FFF8BF0E0A42FFF8AF0A3BC
:101FF800E0A42FFF89F0A3E0A42FFF88F0A3E0A4BA
:0C2008002F8EF08D838C822275820022C6
:00000001FF
