:03000000020006F5
:03005F0002000399
:0300030002006296
:100062007F00900008E4F0900009F090000AF09000
:10007200000BF090000CF090000DF090000EF0904C
:10008200000FF09000107404F0900011740EF090C4
:100092000012F0900013F0900014741FF0900015FD
:1000A200E4F09000167404F0900017E4F090001849
:1000B200F0900019F090001AF090001B741FF0905D
:1000C200001CF090001DE4F090001EF090001FF064
:1000D200C0071206B71203CE90144A75F0801209B7
:1000E200509014A275F0801209509014C275F080DD
:1000F2001209509014E075F080120950D007901444
:10010200F375F080C00712095090000175F00012DB
:100112000778D007900001E0FEBE310280030202A0
:1001220044C007120659D0077D00BD0800400302F3
:10013200022A8D037C00C007C005C003C0047417E7
:10014200C0E07415C0E07480C0E01209FEE58124AD
:10015200FBF581D005D0077C00BC050040030201FD
:10016200ED8C027B00C007C005C004C002C003744E
:1001720028C0E07415C0E07480C0E01209FEE58179
:1001820024FBF58190000675F000120778900006B6
:1001920075F0001207F1AA82D004D005D0078CF0C6
:1001A20005F0EA800225E0D5F0FB2FFF900009C0A0
:1001B20007C005C0041206C5D004D005D0078F02BF
:1001C2007B00C007C005C004C002C003743EC0E08B
:1001D2007415C0E07480C0E01209FEE58124FBF5CD
:1001E20081D004D005D0070C02015BED2408FBE4AA
:1001F2003400FC8B828C83EFF07F008B828C83E057
:10020200FB7C00C007C005C003C0047451C0E07489
:1002120015C0E07480C0E01209FEE58124FBF5817F
:10022200D005D0070D02012C9000297408F074004B
:10023200A3F0E4A3F0758200C00712057CD0070288
:100242000100BE3202800302030090002D7410F000
:100252007400A3F0E4A3F0758200C0071205F0D089
:10026200077D00BD100050168D82C007C005120622
:1002720071758200120689D005D0070D80E57D00D8
:10028200BD1000501B8D0474102CF582C007C005F0
:10029200120671758200120689D005D0070D80E022
:1002A20090002D7418F07400A3F0E4A3F07582019D
:1002B200C0071205F0D0077D00BD0800501B8D0459
:1002C20074442CF582C007C00512067175820112B2
:1002D2000689D005D0070D80E07D00BD08004003EF
:1002E2000201008D0474542CF582C007C005120669
:1002F20071758201120689D005D0070D80DDBE33EB
:100302000AC00712046FD007020100BE342B9014FA
:100312004A75F080C00712095090156375F080127B
:1003220009509014C275F0801209509014E075F0D3
:1003320080120950D00702010090158C75F080C020
:0903420007120950D00702010066
:10144A005072657373203120746F20637265617402
:10145A006520637573746F6D20636861726163746C
:10146A0065722E20456E74657220302F3120666FAA
:10147A007220696E707574206F6620657665727960
:10148A0020636F6C756D6E20666F7220656163688C
:10149A0020726F772E200D005072657373203220F0
:1014AA00746F207072696E7420637265617465640A
:1014BA00206C6F676F200D005072657373203320A4
:1014CA00666F722068657864756D70206F66204358
:1014DA004752414D0D005072657373203F2075735A
:1014EA006572206D656E750D000A0D3C3C456E7483
:1014FA00657220636F6D6D616E6420666F72206F16
:10150A007065726174696F6E3E3E0A0D00726F7784
:10151A00206E756D626572202564200A0D002564AF
:10152A0020656E74657220636861726163746572A6
:10153A00200A0D00746F74616C2076616C75653ACF
:10154A00202564200A0D007573657220617272612C
:10155A00793A202564200A0D00507265737320328F
:10156A00207072696E7420637265617465642063A9
:10157A007573746F6D20636861726163746572203C
:10158A000D00456E74657220612076616C69642075
:10159A00636F6D6D616E64206F7220707265737314
:1015AA0020273F2720666F722075736572206D654C
:0615BA006E75200A0D0011
:10034B00AF83E582900020F0EFA3F0900020E0FE59
:10035B00A3E0FF8E048F051EBEFF011F900020EE51
:10036B00F0EFA3F0EC4D70EB900020EEF0EFA3F06C
:10037B0022C295D296900082E0FDA3E0FEA3E0FF9F
:10038B008D828E838FF012142AFDA312142A53052B
:10039B00807E00BD8005BE000280DA22E5829000DF
:1003AB0022F090007EE0FDA3E0FEA3E0FF90002290
:1003BB00E0FC7B008D828E838FF0EC120915A3EB92
:1003CB00020915C295C2967582301203A7902710A9
:1003DB0012034B7582301203A790271012034B7533
:1003EB0082301203A790271012034B758238120329
:1003FB00A790006412034B75820C1203A790006444
:10040B0012034B7582061203A790006412034B75FF
:10041B0082011203A790006412034B02037CE58256
:10042B00900023F012037CC295C296900023E04407
:10043B0040F5820203A7E582900024F012037CD2E0
:10044B0095C29690007EE0FDA3E0FEA3E0FF900036
:10045B0024E0FC7B008D828E838FF0EC120915A3B8
:10046B00EB0209159000257440F0E4A3F0900027EF
:10047B007440F0E4A3F0900025E0FEA3E0FF9000B1
:10048B0025E0F5F0A3E045F0700122900027E0FC99
:10049B00A3E0FDC007C006C005C004C004C00574BE
:1004AB00C0C0E07415C0E07480C0E01209FEE581A5
:1004BB0024FBF581D004D005D006D0077A007B0051
:1004CB00C3EA9410EB6480948050548C018982C0F1
:1004DB0007C006C005C004C003C0021204291205E0
:1004EB0052A882A983C000C00174C7C0E07415C0B4
:1004FB00E07480C0E01209FEE58124FBF581D00297
:10050B00D003D004D005D006D0070CBC00010D1EC3
:10051B00BEFF011FEE4F60070ABA00A40B80A1902B
:10052B000027ECF0EDA3F0900025EEF0EFA3F074B4
:10053B00CDC0E07415C0E07480C0E01209FE1581D7
:10054B001581158102048112037CD295D2969000FD
:10055B007EE0FDA3E0FEA3E0FF8D828E838FF01281
:10056B00142AFDA312142A53057F7E008D828E83DD
:10057B0022E58290002CF0E0FF900029E0FCA3E044
:10058B00FDA3E0FE7B008F02EAC40354F82440FA7B
:10059B008B01E92AF582C007C006C005C004C00361
:1005AB00120429D003D004D005D006EB2CF8E43D7F
:1005BB00F98E02888289838AF012142AF582C0068A
:1005CB00C005C004C003120441D003D004D005D031
:1005DB0006D0070BBB080040AD7582001206717583
:1005EB008200020689E582900030F0E0FF90002D3A
:1005FB00E0FCA3E0FDA3E0FE7B008F02EAC4035402
:10060B00F82440FA8B01E92AF582C007C006C00521
:10061B00C004C003120429D003D004D005D006EBCC
:10062B002CF8E43DF98E02888289838AF012142A11
:10063B00F582C006C005C004C003120441D003D02C
:10064B0004D005D006D0070BBB080040AD22120327
:10065B007CC295C2967582011203A7900081E4F0CB
:10066B00758200020671E582900031F012037CC2A4
:10067B0095C296900031E04480F5820203A7E58293
:10068B00900032F012037CD295C29690007EE0FD72
:10069B00A3E0FEA3E0FF900032E0FC7B008D828E96
:1006AB00838FF0EC120915A3EB02091575892075E0
:1006BB008DFD759850D28ED29922AF83E582900032
:1006CB0033F0EFA3F03099FD3099FDE59830E1FB65
:1006DB00900033E0FEA3E0FF8E99C2998E828F8348
:1006EB00223098FDE59830E0FB10980280FBAE9924
:1006FB007F008E828F8322AFF0AE83E58290003530
:10070B00F0EEA3F0EFA3F0900035E0FDA3E0FEA325
:10071B00E0FF7B007C008D828E838FF012142AFA0F
:10072B0060360DBD00010E900035EDF0EEA3F0EF3D
:10073B00A3F08A017A0089828A83C007C006C005AC
:10074B00C004C0031206C5D003D004D005D006D018
:10075B00070BBB00C10C80BE900035EDF0EEA3F093
:10076B00EFA3F00BBB00010C8B828C8322AFF0AE9E
:10077B0083E582900038F0EEA3F0EFA3F07E007FCC
:10078B0000900038E0FBA3E0FCA3E0FDC007C0062F
:10079B00C005C004C0031206ECA982D003D004D05C
:1007AB0005D006D0078B828C838DF0E9120915A337
:1007BB00AB82AC830EBE00010F900038EBF0ECA3C4
:1007CB00F0EDA3F0B90DC5900038EBF0ECA3F0ED14
:1007DB00A3F08B828C838DF0E41209150EBE000101
:0607EB000F8E828F8322B5
:1015C000253033783A20002530327820000A0D008B
:0715DB00008000007E00000B
:06003500E478FFF6D8FD9F
:1007F100AFF0AE83E58290003BF0EEA3F0EFA3F003
:1008010090003EE4F0A3F090003BE0FDA3E0FEA3E6
:10081100E0FF8D828E838FF012142AFCBC200280AF
:1008210003BC09120DBD00010E90003BEDF0EEA3DB
:10083100F0EFA3F080DC90003BEDF0EEA3F0EFA32E
:10084100F08D828E838FF012142AFC900040E4BC5C
:100851002D0104F0BC2D028003BC2B0E90003B74D3
:10086100012DF0E43EA3F0EFA3F090003BE0FDA3E7
:10087100E0FEA3E0FF8D828E838FF012142AFCBC70
:1008810030009200405FEC24C69200405890003E38
:10089100E0FBA3E0FC900042EBF0ECA3F090000A37
:1008A100C007C006C005120930AB82AC83D005D0A9
:1008B10006D0078D828E838FF012142AFAA3AD829F
:1008C100AE8390003BEDF0EEA3F0EFA3F08A017A46
:1008D10000E924D0F9EA34FFFA90003EE92BF0EA6E
:1008E1003CA3F0809090003BEDF0EEA3F0EFA3F07D
:1008F100900040E0601190003EE0FEA3E0FFC3E401
:100901009EFEE49FFF800890003EE0FEA3E0FF8E84
:04091100828F83222C
:100013007907E94400601B7A019015DB787E75A0AF
:1000230000E493F2A308B8000205A0D9F4DAF2754C
:02003300A0FF2C
:1009150020F71130F6138883A88220F509F6A883FD
:100925007583002280FEF280F5F022AA83AB828BCC
:10093500F0900042E0A4F8A9F08AF0E0A429F98B30
:0B094500F0A3E0A429F58388822222A1
:10003B007800E84400600A790175A000E4F309D860
:10004B00FC787DE84400600C7901900001E4F0A39A
:04005B00D8FCD9FAFA
:10095000AFF0AE83E582900044F0EEA3F0EFA3F099
:10096000900044E0FDA3E0FEA3E0FF8D828E838F24
:10097000F012142AFC60330DBD00010E900044ED0E
:10098000F0EEA3F0EFA3F07B008C828B83C007C056
:1009900006C0051206C5AB82AC83D005D006D007D1
:1009A000BBFFC8BCFFC590FFFF2290000A0206C52E
:1009B000C0128581127E008E831206C5D01222AF2E
:1009C000F0AE83E582900048F0EEA3F0EFA3F09044
:1009D0000048E0FDA3E0FEA3E0FF900047E0FC90AC
:1009E000005CE4F0A3F0A3F090005FEDF0EEA3F064
:1009F000EFA3F0900062ECF09009B0020B04C0127B
:100A0000E581F51224FBFF90005CE4F0A3F0A3F075
:100A1000E51224FBF890005FE6F008E6A3F008E694
:100A2000A3F0900062EFF09009B0120B04D01222F4
:100A3000E582900058F0E0FF90004EE0C0E0A3E0B7
:100A4000C0E0A3E0C0E0120A4B800D90004CE0C073
:100A5000E0A3E0C0E08F822215811581158190000E
:100A600056E02401F0A3E03400F022E58290005922
:100A7000F0E02430FF24C6500D74072FFF90004B88
:100A8000E060034307208F82020A30E58290005A1B
:100A9000F0E0FFC4540FF582C007120A6BD0075371
:100AA000070F8F82020A6BE58290005BF090005185
:100AB000E0FCA3E0FDA3E0FEA3E0FF900055E0FB17
:100AC00090005BE0FA79208B00E828F513EF2354BF
:100AD000014513FBEC2CFCED33FDEE33FEEF33FF51
:100AE000C3EB9A4007EBC39AFB43040119E970D7A3
:100AF000900051ECF0EDA3F0EEA3F0EFA3F0900026
:100B000055EBF022AF83E582900063F0EFA3F09005
:100B10000063E0FEA3E0FF90004CEEF0EFA3F09046
:100B2000005CE0FDA3E0FEA3E0FF90004EEDF0EEE0
:100B3000A3F0EFA3F0900056E4F0A3F090005FE084
:100B4000FDA3E0FEA3E0FF8D828E838FF012142AB6
:100B5000FC90005F74012DF0E43EA3F0EFA3F0ECF5
:100B60007003021406BC250280030213FE90006588
:100B7000E4F0900066F0900067F0900068F090005C
:100B800069F090006AF090006BF090006CF09000BB
:100B90006EF090006FF0A3F090007114F0A3F0904D
:100BA000005FE0FDA3E0FEA3E0FF8D828E838FF067
:100BB00012142AFBA3AD82AE8390005FEDF0EEA38A
:100BC000F0EFA3F0900075EBF0BB25088B82120AC2
:100BD00030020B3CBB30005003020C9DEB24C6508E
:100BE00003020C9D900071E0F508A3E0F50974FF85
:100BF000B50863B50960C005C006C00790006FE086
:100C0000FAA3E0FF900042EAF0EFA3F090000AC0E0
:100C100005C003120930AE82AF83D003D0058B022A
:100C20007D00EA2EFEED3FFFEE24D0FEEF34FFFF05
:100C300090006FEEF0EFA3F0D007D006D005900043
:100C40006FE0F5F0A3E045F06003020BAA900066A8
:100C50007401F0020BAAC005C006C007900042E56F
:100C600008F0E509A3F090000AC006C005C0031211
:100C70000930AA82AF83D003D005D0067E00EB2ACC
:100C8000FAEE3FFFEA24D0FAEF34FFFF900071EA5A
:100C9000F0EFA3F0D007D006D005020BAA900075A4
:100CA000E0FBBB2E2FC005C006C007900071E0FA24
:100CB000A3E0FFBAFF05BFFF028009D007D006D02E
:100CC00005020BAAD007D006D005900071E4F0A36E
:100CD000F0020BAABB61004014EB2485400F90008A
:100CE0007574DF5BF090004B7401F0800590004B51
:100CF000E4F0900075E0FBBB20028075BB2B028006
:100D000067BB2D028059BB4202806FBB4302807CCF
:100D1000BB4403020F94BB4603020FBABB48030255
:100D20000BAABB4903020F94BB4A03020BAABB4C9C
:100D3000028050BB4F03020FA2BB5003020F02BB45
:100D400053028077BB5403020BAABB5503020FAAC0
:100D5000BB5803020FB2BB5A03020BAA020FC29088
:100D600000657401F0020BAA9000677401F0020B99
:100D7000AA9000687401F0020BAA90006A7401F056
:100D8000020BAA90006B7401F0020BAA90006AE0BB
:100D9000600E900062E014F9F0900075E7F0800FAB
:100DA000900062E024FEFFF08F01900075E7F09064
:100DB0000075E0F582120A30020FD1900062E02443
:100DC000FDFFF08F0187050987060987071919902C
:100DD0000051EDF0EEA3F0EFA3F08D828E838FF043
:100DE000121412858208858309900071E0FAA3E04D
:100DF000FDBAFF0DBDFF0A900071E508F0E509A3FB
:100E0000F0900065E0704B90006FE0FAA3E0FDC346
:100E1000E5089AE5099D503A90006FEAC39508F0FD
:100E2000ED9509A3F090006FE0FAA3E0FD8A068D2E
:100E3000071ABAFF011DEE4F6010758220C005C071
:100E400002120A30D002D00580E390006FEAF0ED84
:100E5000A3F0900071E0F50BA3E0F50C900051E0D9
:100E6000FAA3E0FDA3E0FF8A828D838FF012142A9B
:100E7000F50A603CC3E4950B7480850CF063F08048
:100E800095F0502C150B74FFB50B02150C850A82DA
:100E9000120A30900051E0FAA3E0FDA3E0FF0ABA85
:100EA00000010D900051EAF0EDA3F0EFA3F080AC4B
:100EB000900065E07003020FD190006FE0FEA3E0A8
:100EC000FFC3E5089EE5099F4003020FD190006F24
:100ED000EEC39508F0EF9509A3F090006FE0FEA334
:100EE000E0FF8E028F051EBEFF011FEA4D70030258
:100EF0000FC9758220C007C006120A30D006D0077D
:100F000080E0900062E024FDFDF08D01870D0987EF
:100F10000E09870F1919900051E50DF0E50EA3F0A9
:100F2000E50FA3F0900053E0FDBD80004008900065
:100F3000757443F08020BD600040089000757450C7
:100F4000F08013BD400040089000757449F08006A1
:100F50009000757458F0900075E0FDF582C00512A0
:100F60000A3075823A120A30758230120A30758260
:100F700078120A30D005BD4902800EBD50028009AA
:100F8000900052E0F582120A8B900051E0F5821237
:100F90000A8B803D9000697401F090006E740AF035
:100FA000802F90006E7408F0802790006E740AF015
:100FB000801F90006E7410F0801790006C7401F028
:100FC000800F8B82120A30800890006FEEF0EFA342
:100FD000F090006CE06071900062E024FCFFF08F04
:100FE00001870309870509870609870719191990D9
:100FF0000051EBF0EDA3F0EEA3F0EFA3F090005161
:1010000074D0F07415A3F07480A3F0900051E0F553
:101010000DA3E0F50EA3E0F50F7401250DFAE435FC
:101020000EFBAF0F900051EAF0EBA3F0EFA3F085B9
:101030000D82850E83850FF012142AFF7003020BB8
:101040003C8F82120A3080C390006EE07003020B66
:101050003C90006AE06047900062E014F9F0870776
:101060007E007D007B00900051EFF0EEA3F0EDA339
:10107000F0EBA3F0900069E06003021114900051BE
:10108000E0FBA3E0A3E0A3E07D007E007F009000F2
:1010900051EBF0EDA3F0EEA3F0EFA3F0807690001B
:1010A0006BE06028900062E024FCFFF08F01870372
:1010B000098705098706098707191919900051EB57
:1010C000F0EDA3F0EEA3F0EFA3F08048900062E013
:1010D00024FEFFF08F01870609870719EF3395E09B
:1010E000FDFB900051EEF0EFA3F0EDA3F0EBA3F0C9
:1010F000900069E0701E900051E0FBA3E0FDA3E0CA
:10110000A3E07E007F00900051EBF0EDA3F0EEA392
:10111000F0EFA3F0900069E06041900051E0FBA384
:10112000E0FDA3E0FEA3E0FF30E72B900051E0FBE1
:10113000A3E0FDA3E0FEA3E0FFC3E49BFBE49DFD71
:10114000E49EFEE49FFF900051EBF0EDA3F0EEA3D0
:10115000F0EFA3F08005900069E4F090006D740159
:10116000F090006EE0F50B75107B751100E4F5084A
:10117000F509900055E4F0850B82120AA790006DE6
:10118000E07033900055E0C454F0F50D900055E048
:10119000C4540F450DF50D851082851183E0FFE5E0
:1011A0000D4207851082851183EFF0151074FFB58D
:1011B00010021511800C900055E0FF8510828511FA
:1011C00083F00508E4B50802050990006DE0B4015C
:1011D00000E433F0900051E0FAA3E0FBA3E0FEA3AB
:1011E000E0FFEA4B4E4F708A90007CE510F0E5116D
:1011F000A3F0900073E508F0E509A3F090006FE01C
:10120000F5F0A3E045F0700990006F7401F0E4A3DD
:10121000F0900066E0FFE07047900065E070418567
:10122000081085091190006FE0FAA3E0FBC007AF3A
:10123000100F8F067F00C3EE9AEF9BD007501975F1
:101240008220C007C003C002120A30D002D003D0EF
:10125000071ABAFF011B80D590006FEAF0EBA3F0EC
:10126000900069E0602075822DC007120A30D00717
:1012700090006FE024FFFDA3E034FFFE90006FEDCF
:10128000F0EEA3F08056900073E0F5F0A3E045F097
:10129000604A900067E0602075822BC007120A3018
:1012A000D00790006FE024FFFDA3E034FFFE900024
:1012B0006FEDF0EEA3F08024900068E0601E758270
:1012C00020C007120A30D00790006FE024FFFDA372
:1012D000E034FFFE90006FEDF0EEA3F0900065E0CB
:1012E0007048900073E0F510A3E0F51190006FE0F6
:1012F000FAA3E0FBC0078A068B071ABAFF011BC3DB
:10130000E5109EE5119FD0075053EF60067D307EBB
:101310000080047D207E008D82C007C003C00212C1
:101320000A30D002D003D00780CA90006FE0FEA33D
:10133000E0FF900073E0F510A3E0F511C3E5109E07
:10134000E5119F500F90006FEEC39510F0EF9511CF
:10135000A3F0801190006FE4F0A3F0800890006F7C
:10136000EAF0EBA3F090007CE0FEA3E0FF900073B6
:10137000E0F510A3E0F511AA10AD11151074FFB53A
:1013800010021511EA4D604590006DE0B40100E4D3
:1013900033F090006DE070140EBE00010F8E828F4E
:1013A00083E0C4540FFD900055F0800E8E828F8331
:1013B000E0FD53050F900055EDF0900055E0F582EB
:1013C000C007C006120A6BD006D00780AA9000653D
:1013D000E07003020B3C90006FE0FEA3E0FF8E0381
:1013E0008F051EBEFF011FEB4D7003020B3C758283
:1013F00020C007C006120A30D006D00780E08C82D9
:10140000120A30020B3C900056E0FEA3E08E82F5FB
:02141000832235
:0B15D0003C4E4F20464C4F41543E0063
:10141200AA82AB8312142A6003A380F8C3E5829ADE
:08142200F582E5839BF58322AE
:0D000600758120121446E58260030200039C
:10142A0020F71430F6148883A88220F507E6A883EB
:10143A0075830022E280F7E49322E022758200227B
:00000001FF
