:03000000020006F5
:0300650002000393
:0300030002006F89
:10006800438E0C90000022901375E4F0A3F09013D7
:10007800C2F09013C3F0A3F09013CAF0A3F090134A
:10008800CCF0A3F09013D8F09013E3F0A3F0120B88
:100098000A9013C2E0600302025A9028CE75F080DD
:1000A8001216439013B375F000120D7A7582771209
:1000B8000AF79013B375F000120F4AAE82AF83901F
:1000C80013C3EEF0EFA3F0C007C006C006C0077464
:1000D8001FC0E07425C0E0121089E58124FCF58179
:1000E800D006D007C3742F9E74808FF063F080957C
:1000F800F0509EC3EE94C1EF648094925093901494
:10010800207410F0E4A3F08E828F83C007C006121B
:100118001357E5828583F0D006D00745F0600302C7
:1001280000999013C27401F08E828F83C007C006B5
:100138001211CEAC82AD83D006D007901375ECF0C7
:10014800EDA3F08E828F83C007C006C005C00412DD
:1001580011CEAA82AB83D004D005D006D0078A0876
:100168008B09EC4D700302021CE508450970030277
:10017800021C9012C1E4F08C008D017B009012C229
:10018800E8F0E9A3F0EBA3F08E0A8F0B9012C5E517
:100198000AF0E50BA3F09012C77401F0A808A909AA
:1001A8007B009012C8E8F0E9A3F0EBA3F09012CB23
:1001B800E50AF0E50BA3F08C028D038B017B00C0F0
:1001C80007C006C006C007C002C001C0037433C020
:1001D800E07425C0E07480C0E01218A1E58124F81D
:1001E800F581D006D007AA08A9097B00C006C00778
:1001F800C002C001C0037458C0E07425C0E0748018
:10020800C0E01218A1E58124F8F581758255120A1B
:10021800F7020099EC4D6006E508450970287F0053
:100228008C828D838FF0120DF3AE08AF097D008E9E
:10023800828F838DF0120DF39013C2E4F090257D28
:1002480075F08012164390258A75F08012164302C5
:1002580000999025AE75F0801216439013C575F07D
:1002680000120D7A9013E3E02401F0A3E03400F0CB
:100278009013C5E0FFBF41005003020319EF24A506
:1002880050030203199025D075F08012164390137D
:10029800CAE0FEA3E0FF9013C3E0FCA3E0FD8E02DA
:1002A8008F03C3EA9CEB9D503C901375E0FCA3E0E0
:1002B800FDEE2EFAEF33FBEA2CFCEB3DFD9013C567
:1002C800E0FB7A008C828D83EBF0EAA3F09013CAEE
:1002D800042EF0E43FA3F09013CCE02401F0A3E057
:1002E8003400F080099025EC75F0801216439013C5
:1002F800C5E0FF7E00C007C0067400C0E07426C0D9
:10030800E07480C0E012146BE58124FBF5810200E3
:10031800999013C5E0FFBF2B028003020487902A3F
:100328005D75F0801216439013CE75F000120D7AA9
:100338009013CE75F000120F4AAD82AE8375822CF1
:10034800C006C005120AF7D005D006C3741D9D74F7
:10035800808EF063F08095F0400302047BC3ED9437
:100368002DEE64809481400302047B9013D8E0FC56
:10037800BC3200400302046FEC75F003A42477F547
:100388000A741335F0F50B8D828E83C006C005C044
:10039800041211CEA882A983D004D005D0067B0010
:1003A800850A82850B83E8F0E9A3F0EBA3F0E8491E
:1003B8007003020099850A82850B83E0F50CA3E09F
:1003C800F50DA3E0F50E8C007B00740228F8E43BE1
:1003D800FBC006C005C004C003C000C005C006C0FD
:1003E8000CC00DC00EC000C0037422C0E07426C04B
:1003F800E07480C0E01218A1E58124F6F581D000F0
:10040800D00390141EE8F0EBA3F090000612133707
:10041800AA82AB83D004D005D006EA24C1F582EBCA
:100428003412F5838C010909E9F0EA24C1FAEB34A6
:1004380012FB8A828B83A3A3A3A3EDF0EEA3F00A99
:10044800BA00010B850A82850B83E0F9A3E0FDA3BE
:10045800E0FE8A828B83E9F0EDA3F0EEA3F090131F
:10046800D8EC04F002009990264C75F080121643DF
:1004780002009990266775F080121643020099BF12
:100488002D02800302056A902A9775F080121643A0
:100498009013D975F000120D7A9013D975F00012E7
:1004A8000F4AAD82AE83ED4E701190268C75F080A8
:1004B800C006C005121643D005D00690141EEDF0F4
:1004C800EEA3F0900006C006C005121337AB82AC4D
:1004D80083EB24C1FBEC3412FC74012BF50CE43CD7
:1004E800F50D850C82850D83E0F8A3E0F9A3E0FA09
:1004F800888289838AF0C004C003120DF3D003D028
:100508000474042BF9E43CFA89828A83E4F0A3F0AA
:100518008B828C83F0850C82850D83F0A3F0A3F089
:1005280089828A83E0F9A3E0FAC001C00274A5C0F9
:10053800E07426C0E07480C0E01218A1E58124FBB5
:10054800F581D005D006C005C00674BFC0E074268A
:10055800C0E07480C0E01218A1E58124FBF5810297
:100568000099BF3F02800302096C9026D875F0807D
:100578001216439013E3E0C0E0A3E0C0E074EDC0BE
:10058800E07426C0E07480C0E01218A1E58124FB65
:10059800F5817425C0E07427C0E07480C0E01218AB
:1005A800A11581158115819012C1E0FE7D00C0065C
:1005B800C0057463C0E07427C0E07480C0E01218FE
:1005C800A1E58124FBF5819012C2E0FCA3E0FDA324
:1005D800E0FEC004C005C0067478C0E07427C0E01F
:1005E8007480C0E01218A1E58124FAF5819012C246
:1005F800E0FCA3E0FDA3E0FE9012C5E0FAA3E0C38F
:1006080013CA13CAFBEA2AFAEB33FBEA2CFCEB3DCC
:10061800FDC004C005C0067494C0E07427C0E0742F
:1006280080C0E01218A1E58124FAF5819012C5E096
:10063800FDA3E0FEC005C00674AEC0E07427C0E0AC
:100648007480C0E01218A1E58124FBF5819013CCD9
:10065800E0FDA3E0FEC006C005C005C00674C1C029
:10066800E07427C0E07480C0E01218A1E58124FB83
:10067800F581D005D0069012C5E0FBA3E0FCEBC3E2
:100688009DFDEC9EFEC005C00674F0C0E07427C056
:10069800E07480C0E01218A1E58124FBF581750C97
:1006A80001750D00C3E50C941EE50D64809480402F
:1006B8000302080290141EE50CF0E50DA3F090006B
:1006C80006121337AB82AC83EB24C1FBEC3412FC6B
:1006D80074042BF9E43CFA89828A83E0F8A3E0FEEB
:1006E8004870030207F78B828C83E0FE7D00C0040C
:1006F800C003C002C001C006C0057417C0E074285A
:10070800C0E07480C0E01218A1E58124FBF581D017
:1007180001D002D003D0048B828C83E0FE7D00C020
:1007280004C003C002C001C006C0057463C0E07401
:1007380027C0E07480C0E01218A1E58124FBF58190
:10074800D001D002D003D0040BBB00010C8B828CEB
:1007580083E0F8A3E0FDA3E0FEC004C003C002C02C
:1007680001C000C005C0067478C0E07427C0E074FA
:1007780080C0E01218A1E58124FAF581D001D002E9
:1007880089828A83E0FDA3E0FEC002C001C005C0E3
:100798000674AEC0E07427C0E07480C0E01218A1EF
:1007A800E58124FBF581D001D002D003D0048B82EF
:1007B8008C83E0FBA3E0FCA3E0FE89828A83E0F956
:1007C800A3E0C313C913C9FAE929F9EA33FAE92BF3
:1007D800FBEA3CFCC003C004C0067494C0E0742764
:1007E800C0E07480C0E01218A1E58124FAF5810503
:1007F8000CE4B50C02050D0206AC90285A75F08081
:100808001216439013CCE0FDA3E0FE7B007C008B26
:10081800018C02C3E99DEA9E400302090A90142054
:10082800740FF0E4A3F08B828C83C006C005C0046B
:10083800C003121357E5828583F0D003D004D00596
:10084800D00645F0705DEB4C6059C005C0069012AB
:10085800C2E0F8A3E0F9A3E0FAEB2BFDEC33FEEDE0
:1008680028F8EE39F9888289838AF01222CDF8A314
:100878001222CDF9C006C005C004C003C000C001E3
:10088800748EC0E07428C0E07480C0E01218A1E53E
:100898008124FBF581D003D004D005D006D006D042
:1008A800058057C005C0069012C2E0F8A3E0F9A37E
:1008B800E0FAEB2BFDEC33FEED28F8EE39F98882EF
:1008C80089838AF01222CDF8A31222CDF9C006C07E
:1008D80005C004C003C000C0017493C0E07428C000
:1008E800E07480C0E01218A1E58124FBF581D003F3
:1008F800D004D005D006D006D0050BBB00010C02F1
:10090800081790289775F0801216437D007E009096
:1009180012C5E0FBA3E0FC8D018E02C3E99BEA9CB3
:10092800502C9012C2E0FAA3E0FBA3E0FCED2DF8F6
:10093800EE33F9E82AFAE93BFB8A828B838CF0E4F0
:1009480012106EA312106E0DBD00C40E80C190135C
:10095800CAE4F0A3F09013CCF0A3F09013E3F0A353
:10096800F0020099BF3D47902AD575F080121643D2
:10097800901375E0FDA3E0FE7C009013CCE0FAA391
:10098800E0FBEA2AFAEB33FB9013E6EAF0EBA3F07C
:100998009013E87420F0E4A3F08D828E838CF0121B
:1009A8000B1890289775F080121643020099BF40E3
:1009B800028003020ACB902B2175F0801216437E29
:1009C800007F00C3EE941EEF648094804003020A07
:1009D8006890141EEEF0EFA3F0900006C007C00662
:1009E800121337AC82AD83D006D007EC24C1FCEDDE
:1009F8003412FD74012CFAE43DFB8A828B83E0F506
:100A08000CA3E0F50DA3E0F50EE50C450D6049C01B
:100A180006C007A80CA90DAF0E888289838FF0C085
:100A280007C006C005C004C003C002120DF3D002FF
:100A3800D003D004D005D006D0078C828D83E4F093
:100A48008C828D83A3A3A3A3F0A3F08A828B83F067
:100A5800A3F0A3F0D007D0060EBE00010F0209CB09
:100A68009013CCE0FEA3E0FF7C007D008C028D0398
:100A7800C3EA9EEB9F5034C006C0079012C2E0F94B
:100A8800A3E0FAA3E0FBEC2CF8ED33FFE829F9EF3B
:100A98003AFA89828A838BF0E412106EA312106EE0
:100AA8000CBC00010DD007D00680C19013CCE4F037
:100AB800A3F09013CAF0A3F09013D8F09013C2F0EB
:100AC80002009990289A75F0801216439013C5E099
:100AD800FF7E00C007C00674B5C0E07428C0E0748B
:100AE80080C0E01218A1E58124FBF581020099E598
:100AF800829013E5F0E0FF7E00907FF0EFF0EEA328
:100B0800F022758920758DFD759850D28ED2992264
:100B1800AFF0AE83E5829013EAF0EEA3F0EFA3F016
:100B28009013EAE0FDA3E0FEA3E0FF9013E8E0FBEA
:100B3800A3E0FC9013E6E0F9A3E0FAE4F50FF51062
:100B4800C3E50F99E51064808AF063F08095F04062
:100B580003020C6A901420EBF0ECA3F0850F828559
:100B68001083C007C006C005C004C003C002C0018E
:100B7800121357E5828583F0D001D002D003D00448
:100B8800D005D006D00745F07077E50F4510603CDA
:100B9800C007C006C005C004C003C002C00174ED90
:100BA800C0E07413C0E0E4C0E0744DC0E0742BC032
:100BB800E07480C0E01218A1E58124FAF581D00123
:100BC800D002D003D004D005D006D007C007C00695
:100BD800C005C004C003C002C001C00FC0107454D7
:100BE800C0E0742BC0E07480C0E01218A1E5812435
:100BF800FBF581D001D002D003D004D005D006D0B7
:100C080007C001C002E50F2DF8E5103EF98F0288F4
:100C18008289838AF01222CDF87A00C007C006C004
:100C280005C004C003C002C001C000C002745CC09B
:100C3800E0742BC0E07480C0E01218A1E58124FBA9
:100C4800F581D001D002D003D004D005D006D0075A
:100C58007402250FF50FE43510F510D002D001020B
:100C68000B488B068C07AC0FAD10901420EEF0EFFC
:100C7800A3F08C828D83C007C006C005C004121380
:100C880057E5828583F0D004D005D006D00745F01B
:100C9800602CC007C006C005C0047462C0E0742B95
:100CA800C0E07480C0E01218A1158115811581D0AB
:100CB80004D005D006D0070CBC00AF0D80AC22AF25
:100CC80083E5829013FEF0EFA3F03099FD3099FD93
:100CD800E59830E1FB9013FEE0FEA3E0FF8E99C299
:100CE800998E828F83223098FDE59830E0FB10982A
:100CF8000280FBAE997F008E828F8322AFF0AE8395
:100D0800E582901400F0EEA3F0EFA3F0901400E059
:100D1800FDA3E0FEA3E0FF7B007C008D828E838F25
:100D2800F01222CDFA60360DBD00010E901400EDD0
:100D3800F0EEA3F0EFA3F08A017A0089828A83C0DB
:100D480007C006C005C004C003120CC7D003D004F6
:100D5800D005D006D0070BBB00C10C80BE90140094
:100D6800EDF0EEA3F0EFA3F00BBB00010C8B828C2F
:100D78008322AFF0AE83E582901403F0EEA3F0EF88
:100D8800A3F07E007F00901403E0FBA3E0FCA3E047
:100D9800FDC007C006C005C004C003120CEEA9823E
:100DA800D003D004D005D006D0078B828C838DF079
:100DB800E912106EA3AB82AC830EBE00010F901433
:100DC80003EBF0ECA3F0EDA3F0B90DC5901403EB21
:100DD800F0ECA3F0EDA3F08B828C838DF0E412107D
:0B0DE8006E0EBE00010F8E828F832272
:10251D00C01273697A6520656E74657265643D20BD
:10252D002564200A0D00427566666572302061745F
:10253D00206C6F636174696F6E2025702068617304
:10254D002073697A652025640A0D004275666665FB
:10255D007231206174206C6F636174696F6E202518
:10256D0070206861732073697A652025640A0D00F7
:10257D004641494C494E47204845524500627566D3
:10258D006665723020262062756666657231206E32
:10259D006F7420696E697469616C697A65640A0D7E
:1025AD00003C3C456E74657220636F6D6D616E64A9
:1025BD0020666F72206F7065726174696F6E3E3E3A
:1025CD000A0D0073746F72616765206368617261D3
:1025DD006374657220656E74657265640A0D006EB4
:1025ED006F20737061636520696E20627566666524
:1025FD0072300073746F7261676520636861726118
:10260D00637465722072656365697665643D202526
:10261D0063200A0D006E657720627566666572250A
:10262D0064206174206C6F636174696F6E20257016
:10263D00206861732073697A652025640A0D004155
:10264D006C6C6F636174696F6E206C696D69742059
:10265D00726561636865640A0D00456E746572206C
:10266D006275666665722073697A65206265747736
:10267D0065656E2033302026203330300A0D00433F
:10268D00616E6E6F742064656C657465206275662D
:10269D0066657230200A0D0053697A65206F6620D9
:1026AD0064656C6574656420427566666572202587
:1026BD00640044656C65746564207468652062759A
:1026CD0066666572202564200A0D003F2053796DE2
:1026DD00626F6C207265636569766564200A0D0012
:1026ED00546F74616C206E756D626572206F66201B
:1026FD006368617261637465727320726563656985
:10270D007665642073696E6365206C617374203F18
:10271D003D202564200A0D002D2D2D2D2D2D2D2D27
:10272D002D2D2D2D2D2D2D2D2D2D2D2D42756666FD
:10273D006572302064657461696C732D2D2D2D2D9E
:10274D002D2D2D2D2D2D2D2D2D2D2D2D2D2D2D2DAC
:10275D002D2D2D0A0D00427566666572206E756D04
:10276D006265723D202564200A0D0042756666651E
:10277D007220737461727420616464726573733D49
:10278D00202570200A0D0042756666657220656E03
:10279D006420616464726573733D202570200A0D99
:1027AD00004275666665722073697A653D20256401
:1027BD00200A0D004E756D626572206F6620737470
:1027CD006F726167652063686172616374657273AE
:1027DD0020696E20627566666572303D2025642025
:1027ED000A0D00416D6F756E74206F6620667265FF
:1027FD006520737061636520696E2062756666651C
:10280D0072303D202564200A0D002D2D2D2D2D2DEE
:10281D002D2D2D2D2D2D2D2D2D2D2D2D2D2D2D2DDB
:10282D004275666665722025642064657461696C05
:10283D0073202D2D2D2D2D2D2D2D2D2D2D2D2D2D82
:10284D002D2D2D2D2D2D2D2D2D2D0A0D002A2A2A24
:10285D002A2A2A2A2A2A2A53746F726167652063ED
:10286D00686172616374657273206174204275666C
:10287D00666572303A2A2A2A2A2A2A2A2A2A2A0DF3
:10288D000025630A0D00256320000A0D00436F6DBE
:10289D006D616E642073796D626F6C207265636516
:1028AD0069766564200A0D00436F6D6D616E64205D
:1028BD006368617261637465723D202563200A0D42
:1028CD0000436F6D6D616E64206368617261637446
:1028DD0065727320746F20646F2074686520666F55
:1028ED006C6C6F77696E6720616374696F6E730DC1
:1028FD000A5570706572206361736573206C657421
:10290D00746572206172652073746F7261676520E2
:10291D006368617261637465727320616E642061B6
:10292D0072652073746F72656420696E20627566BE
:10293D00666572300D0A54686520272B2720636861
:10294D006172616374657220616464732061206ECD
:10295D006577206275666665720D0A546865202775
:10296D002D27206368617261637465722064656CE4
:10297D00657465732074686520656E746572656431
:10298D00206275666665720D0A54686520273F27BB
:10299D00206368617261637465722067697665731F
:1029AD002064657461696C73206F6620616C6C20A6
:1029BD00627566666572730D0A54686520273D273A
:1029CD0020636861726163746572206769766573EF
:1029DD00206865782076616C756573206F6620635D
:1029ED0068617261637465727320696E20627566C9
:1029FD00666572300D0A546865202740272063688C
:102A0D006172616374657220667265657320616CB5
:102A1D006C20627566666572730D0A456E7465721B
:102A2D00207468652073697A6520626574776565C1
:102A3D006E2034382D3438303020746F20616C6C3A
:102A4D006F6361746520627566666572730A0D0049
:102A5D002B2053796D626F6C2072656365697665A5
:102A6D0064200A0D0A456E746572206E6F206F66C4
:102A7D00206279746573206265747765656E2033A5
:102A8D00302026203330300A0D002D2053796D6211
:102A9D006F6C207265636569766564200A0D0A4561
:102AAD006E74657220746865206275666665722045
:102ABD006E756D62657220746F2062652064656C41
:102ACD0065746564200A0D003D2053796D626F6C4D
:102ADD00207265636569766564200A0D0A4865781C
:102AED0061646563696D616C2076616C75657320D9
:102AFD006F662073746F72616765206368617261C0
:102B0D0063746572732061742042756666657230F8
:102B1D00200A0D00402053796D626F6C2072656341
:102B2D006569766564200A0D0A46726565696E678A
:102B3D0020616C6C2062756666657273200A0D00EB
:102B4D00202025730A0D0020202530347820002008
:092B5D0025303278002020200010
:100DF300AFF0AE83E582901406F0EEA3F0EFA3F01C
:100E0300901406E0FDA3E0FEA3E0901406E0F5F0E5
:100E1300A3E045F070012290140BE4F0A3F09014CA
:100E230016E0FBA3E0FC901409EBF0ECA3F09014A4
:100E33000D7416F07414A3F0901409E0FBA3E0FC06
:100E43004B60418B018C02C003C0048D008E04C330
:100E5300E998EA9CD004D003502A90140BEBF0ECF1
:100E6300A3F074022BFBE43CFC90140DEBF0ECA319
:100E7300F08B828C83E0FBA3E0FC901409EBF0EC95
:100E8300A3F080B4901409E0FEA3E0FF901406E001
:100E9300FBA3E0FCA3E0EB24FEFBEC34FFFC7402B9
:100EA3002BFAE43CFD8A828D83EEF0EFA3F09014DD
:100EB3000DE0F8A3E0F988828983EBF0ECA3F08BD3
:100EC300828C83E0F8A3E0F9EEB50033EFB5012F90
:100ED30088828983A3A3E0FEA3E0FF8A828D83EE49
:100EE300F0EFA3F08B828C83E0FEA3E0FF8E828F72
:100EF30083E0FEA3E0FF8B828C83EEF0EFA3F09000
:100F0300140BE0FEA3E0FF4E603C8E828F83E0F87B
:100F1300A3E0F9E8B5032FE9B5042B8B828C83E0BA
:100F2300FBA3E0FC8E828F83EBF0ECA3F074022E24
:100F3300FEE43FFF8A828D83E0FAA3E0FD8E828F79
:070F430083EAF0EDA3F022A8
:06003500E478FFF6D8FD9F
:100F4A00AFF0AE83E58290140FF0EEA3F0EFA3F0BA
:100F5A00901412E4F0A3F090140FE0FDA3E0FEA3B6
:100F6A00E0FF8D828E838FF01222CDFCBC2002809E
:100F7A0003BC09120DBD00010E90140FEDF0EEA393
:100F8A00F0EFA3F080DC90140FEDF0EEA3F0EFA3E6
:100F9A00F08D828E838FF01222CDFC901414E4BC63
:100FAA002D0104F0BC2D028003BC2B0E90140F748B
:100FBA00012DF0E43EA3F0EFA3F090140FE0FDA39F
:100FCA00E0FEA3E0FF8D828E838FF01222CDFCBC5F
:100FDA0030009200405FEC24C692004058901412F0
:100FEA00E0FBA3E0FC90141EEBF0ECA3F090000AE7
:100FFA00C007C006C005121337AB82AC83D005D038
:10100A0006D0078D828E838FF01222CDFAA3AD828D
:10101A00AE8390140FEDF0EEA3F0EFA3F08A017AFD
:10102A0000E924D0F9EA34FFFA901412E92BF0EA25
:10103A003CA3F0809090140FEDF0EEA3F0EFA3F034
:10104A00901414E06011901412E0FEA3E0FFC3E4D0
:10105A009EFEE49FFF8008901412E0FEA3E0FF8E3C
:04106A00828F8322CC
:100013007900E94400601B7A00902B7178AA75A0DF
:1000230014E493F2A308B8000205A0D9F4DAF27538
:02003300A0FF2C
:10106E0020F71130F6138883A88220F509F6A8839D
:10107E007583002280FEF280F5F022C01F85811F4D
:10108E00E51F24FDF8868318868218E493A324DBDB
:10109E00600C2425600512117780F002118FD2D5D5
:1010AE00E493A3C083C082B4731486F018868318A9
:1010BE008682181222CD6054A312117780F5B46384
:1010CE000818E6181211778043B46417E630E74625
:1010DE0018E6F42401F608E6F43400F6742D121125
:1010EE00778033B4782D868318868218E4121168BF
:1010FE00E583121167E583121168E582121167E527
:10110E008212116830D5057430121177D082D083D7
:10111E00021099B475F6E6FA18E6F9187C107D27D8
:10112E00121152FF7CE87D03121152C4F5837C64C8
:10113E007D001211524283E975F00A84C445F0F520
:10114E0082EF80A97B000BC3E99CF9EA9DFA50F669
:10115E001BE92CF9EA3DFAEB22C4540F700320D59B
:10116E001FC2D52490D43440D4C083C082C0F0F5C1
:10117E0082E8C0E0120CC7D0E0F8D0F0D082D08365
:10118E0022D01F229014167401F07400A3F0902543
:10119E001DE493FE740193FF1EBEFF011FEE24019A
:1011AE00FEEF3400FF900001EEF0EFA3F090141666
:1011BE00E0FEA3E0FF8E828F83A3A3E4F0A3F022D0
:1011CE00AF83E582901418F0EFA3F0901416E0F5BB
:1011DE00F0A3E045F07003121192901418E0FEA3F4
:1011EE00E0FF4E600E74022EFCE43FFDC3EC9EED5C
:1011FE009F50049000002290141874022EF0E43FC9
:10120E00A3F0901418E0FEA3E0FFC3EE9404EF9455
:10121E000050099014187404F0E4A3F0901416E032
:10122E00FEA3E0FF90141AEEF0EFA3F090141C74DE
:10123E0016F07414A3F090141AE0FEA3E0FF4E70A3
:10124E00030213338E828F83E0FCA3E0FD8C028DAC
:10125E00038E008F01EAC398FAEB99FB8A008B018B
:10126E00901418E0F511A3E0F512C3E89511E99575
:10127E0012500302131074042511F8E43512F9C349
:10128E00EA98EB99404C8E028F03E5112AFAE5128B
:10129E003BFB8A828B83ECF0EDA3F074022AFCE414
:1012AE003BFD8E828F83A3A3E0F8A3E0F98C828DA1
:1012BE0083E8F0E9A3F090141CE0FCA3E0FD8C821F
:1012CE008D83EAF0EBA3F08E828F83EAF0EBA3F02E
:1012DE00801C90141CE0FCA3E0FD8E828F83A3A3E0
:1012EE00E0FAA3E0FB8C828D83EAF0EBA3F090147E
:1012FE001AE0FCA3E0FD74022CFCE43DFD8C828D13
:10130E00832274022EFEE43FFF90141CEEF0EFA336
:10131E00F08E828F83E0FEA3E0FF90141AEEF0EFC2
:10132E00A3F002124490000022AA83AB828BF090AD
:10133E00141EE0A4F8A9F08AF0E0A429F98BF0A31A
:10134E00E0A429F58388822222AF83E582901422BD
:10135E00F0EFA3F0901422E0FEA3E0FF30E709C304
:10136E00E49EFCE49FFD80048E048F05901420E023
:10137E00FEA3E0FF30E709C3E49EFAE49FFB80047E
:10138E008E028F03901424EAF0EBA3F08C828D83EF
:10139E001213BFAE82AF83901422E0A3E030E70CAD
:1013AE00C3E49EFCE49FFD8C828D83228E828F830C
:1013BE0022AF83E582901426F0EFA3F0901428E478
:1013CE00F0901426E0FEA3E0FF7D00901424E0FBD5
:1013DE00A3E0FC235401FA7036EB2BFBEC33FC90AC
:1013EE001424EBF0ECA3F0901424E0FBA3E0FCC378
:1013FE00EE9BEF9C5011ECC313CB13CBFC9014243B
:10140E00EBF0ECA3F080080D901428EDF080BC906A
:10141E001428E0FF901426E0FDA3E0FE901424E0D3
:10142E00FBA3E0FCC3ED9BEE9C400B901426EDC39A
:10143E009BF0EE9CA3F0901424E0FDA3E0C313CD2B
:10144E0013CDFE901424EDF0EEA3F08F061FEE7078
:0D145E00C3901426E0FEA3E08E82F58322E9
:10003B007800E84400600A790175A000E4F309D860
:10004B00FC78A9E84414600C7915900001E4F0A346
:0A005B00D8FCD9FAC201C202C203A8
:10146B00C01FE581F51F24FBFFE51F24FBF8860455
:10147B000886050886068C828D838EF01222CDFBA2
:10148B007003021640BB25028003021625C203C25D
:10149B0002C201E51F24FBF874012CF6E43D08F6AB
:1014AB0008A606E51F24FBF88604088605088606B1
:1014BB008C828D838EF01222CDFABA68028017BA15
:1014CB006C26D201E51F24FBF874012CF6E43D08D1
:1014DB00F608A6068012D203E51F24FBF874012C34
:1014EB00F6E43D08F608A606E51F24FBF88604087B
:1014FB0086050886068C828D838EF01222CDFEBE69
:10150B0063028022BE64028013BE6F02801DBE7315
:10151B00028005BE78188009D202801275130A80EA
:10152B000D751310800875130080037513083002B6
:10153B004CEF24FDFEFF8E018714098715098716D2
:10154B001919AC14AD15AE168C828D838EF0122248
:10155B00CD7003021632AC14AD15AE168C828D8392
:10156B008EF01222CDFC0514E4B5140205157E0095
:10157B008C828E83C007120CC7D00780C530011731
:10158B00EF24FCFEFF8E01871709871809871909BD
:10159B00871A191919802F300313EF14F9FF8706D7
:1015AB008E17751800751900751A008019EF24FE37
:1015BB00FEFF8E018705098706198D17EEF5183387
:1015CB0095E0F519F51AE513603F901455742FF05B
:1015DB00E4A3F07440A3F0901458E513F085178240
:1015EB008518838519F0E51AC0071217B6D007794D
:1015FB002FE7FE60327D008E828D83C007C0011203
:10160B000CC7D001D0070980E8AE177D008E828D04
:10161B0083C007120CC7D007800D7E008B828E8390
:10162B00C007120CC7D007E51F24FBF806B6000253
:10163B000806021474D01F22AFF0AE83E58290141B
:10164B0029F0EEA3F0EFA3F0901429E0FDA3E0FE48
:10165B00A3E0FF8D828E838FF01222CDFC60330DC1
:10166B00BD00010E901429EDF0EEA3F0EFA3F07B7B
:10167B00008C828B83C007C006C005120CC7AB82DF
:10168B00AC83D005D006D007BBFFC8BCFFC590FF0D
:10169B00FF2290000A020CC7AF82AE83ADF0FC9024
:1016AB001430EFF0EEA3F0EDA3F0ECA3F090142FB9
:1016BB00E0FF7E20901430E0FAA3E0FBA3E0FCA354
:1016CB00E0FD8F1B751C00751D00751E009014949A
:1016DB00E51BF0E51CA3F0E51DA3F0E51EA3F08AC6
:1016EB00828B838CF0EDC007C0061222E9AA82D050
:1016FB0006D00774302AFD901454F08D04EC24C6E8
:10170B00500790145474072DF01EEE2434FCE4346F
:10171B0014FD901454E08C828D83F0901430E0FA19
:10172B00A3E0FBA3E0FCA3E0FD90149DE51BF0E51B
:10173B001CA3F0E51DA3F0E51EA3F08A828B838C1E
:10174B00F0EDC007C006122429AA82AB83ACF0FDD2
:10175B00D006D007901430EAF0EBA3F0ECA3F0ED39
:10176B00A3F0901430E0F5F0A3E042F0A3E042F0D8
:10177B00A3E045F060030216BF90142CE0FCA3E03D
:10178B00FDA3E0FFEE2434F582E43414F583E08C02
:10179B00828D838FF012106EA3AC82AD830EBE20B0
:1017AB00E38C828D838FF0E402106EAF82AE83AD3B
:1017BB00F0FC901459EFF0EEA3F0EDA3F0ECA3F0D6
:1017CB00901459E0FCA3E0FDA3E0FEA3E0FF30E79B
:1017DB003F901458E0FBBB0A37901455E0F9A3E097
:1017EB00FAA3E0FB89828A838BF0742D12106E9022
:1017FB001455740129F0E43AA3F0EBA3F0901459BB
:10180B00C3E49CF0E49DA3F0E49EA3F0E49FA3F05B
:10181B00901459E0FCA3E0FDA3E0FEA3E0FF9014BD
:10182B0055E0F9A3E0FAA3E0FB901458E0F890140C
:10183B002CE9F0EAA3F0EBA3F090142FE8F08C82E4
:10184B008D838EF0EF0216A3C01F85811F7E008E45
:10185B0083120CC7D01F22AFF0AE83E58290145ECB
:10186B00F0EEA3F0EFA3F090145EE0FDA3E0FEA377
:10187B00E0FF90145DE0FC901472E4F0A3F0A3F091
:10188B00901475EDF0EEA3F0EFA3F0901478ECF05C
:10189B009018530219A7C01FE581F51F24FBFF9079
:1018AB001472E4F0A3F0A3F0E51F24FBF890147579
:1018BB00E6F008E6A3F008E6A3F0901478EFF090BA
:1018CB0018531219A7D01F22E58290146EF0E0FF77
:1018DB00901464E0C0E0A3E0C0E0A3E0C0E0121805
:1018EB00EE800D901462E0C0E0A3E0C0E08F822296
:1018FB0015811581158190146CE02401F0A3E0345F
:10190B0000F022E58290146FF0E02430FF24C650E3
:10191B000D74072FFF901461E060034307208F8243
:10192B000218D3E582901470F0E0FFC4540FF582D7
:10193B00C00712190ED00753070F8F8202190EE53D
:10194B0082901471F0901467E0FCA3E0FDA3E0FE1D
:10195B00A3E0FF90146BE0FB901471E0FA79208BFD
:10196B0000E828F52BEF235401452BFBEC2CFCED69
:10197B0033FDEE33FEEF33FFC3EB9A4007EBC39A15
:10198B00FB43040119E970D7901467ECF0EDA3F059
:10199B00EEA3F0EFA3F090146BEBF022AF83E58294
:1019AB00901479F0EFA3F0901479E0FEA3E0FF9090
:1019BB001462EEF0EFA3F0901472E0FDA3E0FEA32F
:1019CB00E0FF901464EDF0EEA3F0EFA3F090146C35
:1019DB00E4F0A3F0901475E0FDA3E0FEA3E0FF8D0F
:1019EB00828E838FF01222CDFC90147574012DF032
:1019FB00E43EA3F0EFA3F0EC70030222A9BC250296
:101A0B0080030222A190147BE4F090147CF09014DC
:101A1B007DF090147EF090147FF0901480F0901471
:101A2B0081F0901482F0901484F0901485F0A3F060
:101A3B0090148714F0A3F0901475E0FDA3E0FEA3BF
:101A4B00E0FF8D828E838FF01222CDFBA3AD82AE91
:101A5B0083901475EDF0EEA3F0EFA3F090148BEBE5
:101A6B00F0BB25088B821218D30219DFBB30005054
:101A7B0003021B40EB24C65003021B40901487E06B
:101A8B00F521A3E0F52274FFB52163B52260C005F3
:101A9B00C006C007901485E0FAA3E0FF90141EEA7D
:101AAB00F0EFA3F090000AC005C003121337AE820B
:101ABB00AF83D003D0058B027D00EA2EFEED3FFFF6
:101ACB00EE24D0FEEF34FFFF901485EEF0EFA3F081
:101ADB00D007D006D005901485E0F5F0A3E045F0D3
:101AEB006003021A4D90147C7401F0021A4DC0056C
:101AFB00C006C00790141EE521F0E522A3F090006C
:101B0B000AC006C005C003121337AA82AF83D003E5
:101B1B00D005D0067E00EB2AFAEE3FFFEA24D0FA7E
:101B2B00EF34FFFF901487EAF0EFA3F0D007D00655
:101B3B00D005021A4D90148BE0FBBB2E2FC005C0B5
:101B4B0006C007901487E0FAA3E0FFBAFF05BFFFBA
:101B5B00028009D007D006D005021A4DD007D00657
:101B6B00D005901487E4F0A3F0021A4DBB6100403E
:101B7B0014EB2485400F90148B74DF5BF090146191
:101B8B007401F08005901461E4F090148BE0FBBBC2
:101B9B0020028075BB2B028067BB2D028059BB4294
:101BAB0002806FBB4302807CBB4403021E37BB46E3
:101BBB0003021E5DBB4803021A4DBB4903021E37CD
:101BCB00BB4A03021A4DBB4C028050BB4F03021E93
:101BDB0045BB5003021DA5BB53028077BB540302C8
:101BEB001A4DBB5503021E4DBB5803021E55BB5A63
:101BFB0003021A4D021E6590147B7401F0021A4DFC
:101C0B0090147D7401F0021A4D90147E7401F00251
:101C1B001A4D9014807401F0021A4D9014817401C6
:101C2B00F0021A4D901480E0600E901478E014F9D5
:101C3B00F090148BE7F0800F901478E024FEFFF007
:101C4B008F0190148BE7F090148BE0F5821218D370
:101C5B00021E74901478E024FDFFF08F01870509B4
:101C6B0087060987071919901467EDF0EEA3F0EFBB
:101C7B00A3F08D828E838FF01222B585822185830E
:101C8B0022901487E0FAA3E0FDBAFF0DBDFF0A9086
:101C9B001487E521F0E522A3F090147BE0704B90C4
:101CAB001485E0FAA3E0FDC3E5219AE5229D503AA5
:101CBB00901485EAC39521F0ED9522A3F09014853D
:101CCB00E0FAA3E0FD8A068D071ABAFF011DEE4F5D
:101CDB006010758220C005C0021218D3D002D00547
:101CEB0080E3901485EAF0EDA3F0901487E0F524DF
:101CFB00A3E0F525901467E0FAA3E0FDA3E0FF8ACB
:101D0B00828D838FF01222CDF523603CC3E49524A2
:101D1B0074808525F063F08095F0502C152474FFAA
:101D2B00B5240215258523821218D3901467E0FA87
:101D3B00A3E0FDA3E0FF0ABA00010D901467EAF0DF
:101D4B00EDA3F0EFA3F080AC90147BE07003021EC8
:101D5B0074901485E0FEA3E0FFC3E5219EE5229F6E
:101D6B004003021E74901485EEC39521F0EF95226B
:101D7B00A3F0901485E0FEA3E0FF8E028F051EBE3C
:101D8B00FF011FEA4D7003021E6C758220C007C055
:101D9B00061218D3D006D00780E0901478E024FD0B
:101DAB00FDF08D01872609872709872819199014BB
:101DBB0067E526F0E527A3F0E528A3F0901469E08A
:101DCB00FDBD8000400890148B7443F08020BD60F3
:101DDB0000400890148B7450F08013BD40004008F5
:101DEB0090148B7449F0800690148B7458F09014F7
:101DFB008BE0FDF582C0051218D375823A1218D309
:101E0B007582301218D37582781218D3D005BD495C
:101E1B0002800EBD50028009901468E0F582121901
:101E2B002E901467E0F58212192E803D90147F746A
:101E3B0001F0901484740AF0802F9014847408F0CD
:101E4B008027901484740AF0801F9014847410F00F
:101E5B0080179014827401F0800F8B821218D3803C
:101E6B0008901485EEF0EFA3F0901482E06071906F
:101E7B001478E024FCFFF08F01870309870509879D
:101E8B0006098707191919901467EBF0EDA3F0EE0B
:101E9B00A3F0EFA3F09014677466F0742BA3F074A7
:101EAB0080A3F0901467E0F526A3E0F527A3E0F5F7
:101EBB002874012526FAE43527FBAF28901467EA2E
:101ECB00F0EBA3F0EFA3F08526828527838528F01E
:101EDB001222CDFF70030219DF8F821218D380C339
:101EEB00901484E070030219DF901480E060479037
:101EFB001478E014F9F087077E007D007B009014C6
:101F0B0067EFF0EEA3F0EDA3F0EBA3F090147FE0FE
:101F1B006003021FB7901467E0FBA3E0A3E0A3E00C
:101F2B007D007E007F00901467EBF0EDA3F0EEA335
:101F3B00F0EFA3F08076901481E06028901478E0A5
:101F4B0024FCFFF08F0187030987050987060987A2
:101F5B0007191919901467EBF0EDA3F0EEA3F0EF4E
:101F6B00A3F08048901478E024FEFFF08F018706E1
:101F7B0009870719EF3395E0FDFB901467EEF0EF3F
:101F8B00A3F0EDA3F0EBA3F090147FE0701E901480
:101F9B0067E0FBA3E0FDA3E0A3E07E007F009014CD
:101FAB0067EBF0EDA3F0EEA3F0EFA3F090147FE05E
:101FBB006041901467E0FBA3E0FDA3E0FEA3E0FF0C
:101FCB0030E72B901467E0FBA3E0FDA3E0FEA3E05A
:101FDB00FFC3E49BFBE49DFDE49EFEE49FFF901496
:101FEB0067EBF0EDA3F0EEA3F0EFA3F080059014F8
:101FFB007FE4F09014837401F0901484E0F5247561
:10200B002991752A14E4F521F52290146BE4F085DF
:10201B00248212194A901483E0703390146BE0C43D
:10202B0054F0F52690146BE0C4540F4526F5268525
:10203B002982852A83E0FFE5264207852982852AA6
:10204B0083EFF0152974FFB52902152A800C901423
:10205B006BE0FF852982852A83F00521E4B52102F7
:10206B000522901483E0B40100E433F0901467E090
:10207B00FAA3E0FBA3E0FEA3E0FFEA4B4E4F708A0E
:10208B00901492E529F0E52AA3F0901489E521F04C
:10209B00E522A3F0901485E0F5F0A3E045F070097C
:1020AB009014857401F0E4A3F090147CE0FFE070D1
:1020BB004790147BE0704185212985222A90148555
:1020CB00E0FAA3E0FBC007AF290F8F067F00C3EE3A
:1020DB009AEF9BD0075019758220C007C003C0022E
:1020EB001218D3D002D003D0071ABAFF011B80D528
:1020FB00901485EAF0EBA3F090147FE060207582DA
:10210B002DC0071218D3D007901485E024FFFDA330
:10211B00E034FFFE901485EDF0EEA3F080569014A2
:10212B0089E0F5F0A3E045F0604A90147DE0602073
:10213B0075822BC0071218D3D007901485E024FFAB
:10214B00FDA3E034FFFE901485EDF0EEA3F08024A8
:10215B0090147EE0601E758220C0071218D3D00742
:10216B00901485E024FFFDA3E034FFFE901485ED71
:10217B00F0EEA3F090147BE07048901489E0F52901
:10218B00A3E0F52A901485E0FAA3E0FBC0078A06CA
:10219B008B071ABAFF011BC3E5299EE52A9FD007BF
:1021AB005053EF60067D307E0080047D207E008DD5
:1021BB0082C007C003C0021218D3D002D003D007CD
:1021CB0080CA901485E0FEA3E0FF901489E0F52906
:1021DB00A3E0F52AC3E5299EE52A9F500F901485AD
:1021EB00EEC39529F0EF952AA3F08011901485E4A6
:1021FB00F0A3F08008901485EAF0EBA3F090149212
:10220B00E0FEA3E0FF901489E0F529A3E0F52AAAEC
:10221B0029AD2A152974FFB52902152AEA4D604507
:10222B00901483E0B40100E433F0901483E0701455
:10223B000EBE00010F8E828F83E0C4540FFD9014ED
:10224B006BF0800E8E828F83E0FD53050F90146B25
:10225B00EDF090146BE0F582C007C00612190ED09A
:10226B0006D00780AA90147BE070030219DF90144C
:10227B0085E0FEA3E0FF8E038F051EBEFF011FEB63
:10228B004D70030219DF758220C007C0061218D3E8
:10229B00D006D00780E08C821218D30219DF90147D
:0A22AB006CE0FEA3E08E82F58322B2
:0B2B66003C4E4F20464C4F41543E00B7
:1022B500AA82AB831222CD6003A380F8C3E5829A7C
:0822C500F582E5839BF58322FD
:0D00060075813A120068E582600302000374
:1022CD0020F71430F6148883A88220F507E6A8833A
:1022DD0075830022E280F7E49322E022AF82AE8381
:1022ED00ADF0FC901498EFF0EEA3F0EDA3F0ECA39D
:1022FD00F090149CE4F0901498E0FCA3E0FDA3E0B2
:10230D00FEA3E0FF7B00901494E0F52BA3E0F52CE9
:10231D00A3E0F52DA3E0F52E235401FA7074C0034C
:10232D00E52B252BF8E52C33F9E52D33FAE52E3386
:10233D00FB901494E8F0E9A3F0EAA3F0EBA3F0907E
:10234D001494E0F52BA3E0F52CA3E0F52DA3E0F517
:10235D002EC3EC952BED952CEE952DEF952ED003F0
:10236D005027E52EC313F52EE52D13F52DE52C1372
:10237D00F52CE52B13F52B901494F0E52CA3F0E53B
:10238D002DA3F0E52EA3F080090B90149CEBF00229
:10239D00231390149CE0FF901498E0FBA3E0FCA3A2
:1023AD00E0FDA3E0FE901494E0F52BA3E0F52CA343
:1023BD00E0F52DA3E0F52EC3EB952BEC952CED95CB
:1023CD002DEE952E4017901498EBC3952BF0EC95B0
:1023DD002CA3F0ED952DA3F0EE952EA3F090149473
:1023ED00E0FBA3E0FCA3E0FDA3E0C313FEED13FDB2
:1023FD00EC13FCEB13901494F0ECA3F0EDA3F0EEC2
:10240D00A3F08F061FEE708F901498E0FCA3E0FDF3
:10241D00A3E0FEA3E08C828D838EF022AF82AE838B
:10242D00ADF0FC9014A1EFF0EEA3F0EDA3F0ECA352
:10243D00F09014A5E4F0A3F0A3F0A3F090149DE0A8
:10244D00FCA3E0FDA3E0FEA3E0FF7B20C0039014FE
:10245D00A1E0F8A3E0F9A3E0FAA3E0FB9014A9230F
:10246D005401F0E828F8E933F9EA33FAEB33FB903D
:10247D0014A1E8F0E9A3F0EAA3F0EBA3F09014A502
:10248D00E0F8A3E0F9A3E0FAA3E0FBE828F8E933CC
:10249D00F9EA33FAEB33FB9014A5E8F0E9A3F0EA7F
:1024AD00A3F0EBA3F0D0039014A9E060089014A55D
:1024BD00E043E001F09014A5E0F52BA3E0F52CA38B
:1024CD00E0F52DA3E0F52EC3E52B9CE52C9DE52D28
:1024DD009EE52E9F401F9014A5E52BC39CF0E52C87
:1024ED009DA3F0E52D9EA3F0E52E9FA3F09014A1E2
:1024FD00E043E001F01BEB60030224599014A1E0CE
:10250D00FCA3E0FDA3E0FEA3E08C828D838EF02280
:00000001FF
